{
  "contractName": "LuxOrders",
  "abi": [
    {
      "constant": true,
      "inputs": [],
      "name": "totalDonated",
      "outputs": [
        {
          "name": "",
          "type": "uint256"
        }
      ],
      "payable": false,
      "stateMutability": "view",
      "type": "function"
    },
    {
      "constant": true,
      "inputs": [
        {
          "name": "interfaceId",
          "type": "bytes4"
        }
      ],
      "name": "supportsInterface",
      "outputs": [
        {
          "name": "",
          "type": "bool"
        }
      ],
      "payable": false,
      "stateMutability": "view",
      "type": "function"
    },
    {
      "constant": true,
      "inputs": [],
      "name": "totalChosenDonatedAmount",
      "outputs": [
        {
          "name": "",
          "type": "uint256"
        }
      ],
      "payable": false,
      "stateMutability": "view",
      "type": "function"
    },
    {
      "constant": true,
      "inputs": [],
      "name": "name",
      "outputs": [
        {
          "name": "",
          "type": "string"
        }
      ],
      "payable": false,
      "stateMutability": "view",
      "type": "function"
    },
    {
      "constant": true,
      "inputs": [
        {
          "name": "tokenId",
          "type": "uint256"
        }
      ],
      "name": "getApproved",
      "outputs": [
        {
          "name": "",
          "type": "address"
        }
      ],
      "payable": false,
      "stateMutability": "view",
      "type": "function"
    },
    {
      "constant": false,
      "inputs": [
        {
          "name": "to",
          "type": "address"
        },
        {
          "name": "tokenId",
          "type": "uint256"
        }
      ],
      "name": "approve",
      "outputs": [],
      "payable": false,
      "stateMutability": "nonpayable",
      "type": "function"
    },
    {
      "constant": true,
      "inputs": [],
      "name": "totalSupply",
      "outputs": [
        {
          "name": "",
          "type": "uint256"
        }
      ],
      "payable": false,
      "stateMutability": "view",
      "type": "function"
    },
    {
      "constant": true,
      "inputs": [],
      "name": "totalChosenDonations",
      "outputs": [
        {
          "name": "",
          "type": "uint256"
        }
      ],
      "payable": false,
      "stateMutability": "view",
      "type": "function"
    },
    {
      "constant": true,
      "inputs": [],
      "name": "totalMadeDonations",
      "outputs": [
        {
          "name": "",
          "type": "uint256"
        }
      ],
      "payable": false,
      "stateMutability": "view",
      "type": "function"
    },
    {
      "constant": false,
      "inputs": [
        {
          "name": "from",
          "type": "address"
        },
        {
          "name": "to",
          "type": "address"
        },
        {
          "name": "tokenId",
          "type": "uint256"
        }
      ],
      "name": "transferFrom",
      "outputs": [],
      "payable": false,
      "stateMutability": "nonpayable",
      "type": "function"
    },
    {
      "constant": true,
      "inputs": [
        {
          "name": "owner",
          "type": "address"
        },
        {
          "name": "index",
          "type": "uint256"
        }
      ],
      "name": "tokenOfOwnerByIndex",
      "outputs": [
        {
          "name": "",
          "type": "uint256"
        }
      ],
      "payable": false,
      "stateMutability": "view",
      "type": "function"
    },
    {
      "constant": true,
      "inputs": [],
      "name": "orderIndex",
      "outputs": [
        {
          "name": "",
          "type": "uint256"
        }
      ],
      "payable": false,
      "stateMutability": "view",
      "type": "function"
    },
    {
      "constant": false,
      "inputs": [
        {
          "name": "from",
          "type": "address"
        },
        {
          "name": "to",
          "type": "address"
        },
        {
          "name": "tokenId",
          "type": "uint256"
        }
      ],
      "name": "safeTransferFrom",
      "outputs": [],
      "payable": false,
      "stateMutability": "nonpayable",
      "type": "function"
    },
    {
      "constant": true,
      "inputs": [
        {
          "name": "index",
          "type": "uint256"
        }
      ],
      "name": "tokenByIndex",
      "outputs": [
        {
          "name": "",
          "type": "uint256"
        }
      ],
      "payable": false,
      "stateMutability": "view",
      "type": "function"
    },
    {
      "constant": true,
      "inputs": [
        {
          "name": "tokenId",
          "type": "uint256"
        }
      ],
      "name": "ownerOf",
      "outputs": [
        {
          "name": "",
          "type": "address"
        }
      ],
      "payable": false,
      "stateMutability": "view",
      "type": "function"
    },
    {
      "constant": true,
      "inputs": [
        {
          "name": "owner",
          "type": "address"
        }
      ],
      "name": "balanceOf",
      "outputs": [
        {
          "name": "",
          "type": "uint256"
        }
      ],
      "payable": false,
      "stateMutability": "view",
      "type": "function"
    },
    {
      "constant": false,
      "inputs": [],
      "name": "renounceOwnership",
      "outputs": [],
      "payable": false,
      "stateMutability": "nonpayable",
      "type": "function"
    },
    {
      "constant": true,
      "inputs": [
        {
          "name": "",
          "type": "bytes32"
        }
      ],
      "name": "buyers",
      "outputs": [
        {
          "name": "totalContributed",
          "type": "uint256"
        },
        {
          "name": "totalDonationsAllocated",
          "type": "uint256"
        },
        {
          "name": "exists",
          "type": "bool"
        }
      ],
      "payable": false,
      "stateMutability": "view",
      "type": "function"
    },
    {
      "constant": true,
      "inputs": [
        {
          "name": "",
          "type": "uint256"
        }
      ],
      "name": "orderTokens",
      "outputs": [
        {
          "name": "saleAmount",
          "type": "uint256"
        },
        {
          "name": "tokenURI",
          "type": "string"
        },
        {
          "name": "generation",
          "type": "address"
        },
        {
          "name": "owner",
          "type": "address"
        },
        {
          "name": "redeemed",
          "type": "bool"
        },
        {
          "name": "buyerHash",
          "type": "bytes32"
        },
        {
          "name": "redemptionHash",
          "type": "bytes32"
        },
        {
          "name": "exists",
          "type": "bool"
        }
      ],
      "payable": false,
      "stateMutability": "view",
      "type": "function"
    },
    {
      "constant": true,
      "inputs": [],
      "name": "owner",
      "outputs": [
        {
          "name": "",
          "type": "address"
        }
      ],
      "payable": false,
      "stateMutability": "view",
      "type": "function"
    },
    {
      "constant": true,
      "inputs": [],
      "name": "isOwner",
      "outputs": [
        {
          "name": "",
          "type": "bool"
        }
      ],
      "payable": false,
      "stateMutability": "view",
      "type": "function"
    },
    {
      "constant": true,
      "inputs": [],
      "name": "symbol",
      "outputs": [
        {
          "name": "",
          "type": "string"
        }
      ],
      "payable": false,
      "stateMutability": "view",
      "type": "function"
    },
    {
      "constant": false,
      "inputs": [
        {
          "name": "to",
          "type": "address"
        },
        {
          "name": "approved",
          "type": "bool"
        }
      ],
      "name": "setApprovalForAll",
      "outputs": [],
      "payable": false,
      "stateMutability": "nonpayable",
      "type": "function"
    },
    {
      "constant": true,
      "inputs": [
        {
          "name": "",
          "type": "bytes32"
        }
      ],
      "name": "madeDonations",
      "outputs": [
        {
          "name": "charityName",
          "type": "string"
        },
        {
          "name": "donationProofUrl",
          "type": "string"
        },
        {
          "name": "amountDonated",
          "type": "uint256"
        },
        {
          "name": "donorAddress",
          "type": "address"
        }
      ],
      "payable": false,
      "stateMutability": "view",
      "type": "function"
    },
    {
      "constant": false,
      "inputs": [
        {
          "name": "from",
          "type": "address"
        },
        {
          "name": "to",
          "type": "address"
        },
        {
          "name": "tokenId",
          "type": "uint256"
        },
        {
          "name": "_data",
          "type": "bytes"
        }
      ],
      "name": "safeTransferFrom",
      "outputs": [],
      "payable": false,
      "stateMutability": "nonpayable",
      "type": "function"
    },
    {
      "constant": true,
      "inputs": [],
      "name": "totalRaised",
      "outputs": [
        {
          "name": "",
          "type": "uint256"
        }
      ],
      "payable": false,
      "stateMutability": "view",
      "type": "function"
    },
    {
      "constant": true,
      "inputs": [
        {
          "name": "tokenId",
          "type": "uint256"
        }
      ],
      "name": "tokenURI",
      "outputs": [
        {
          "name": "",
          "type": "string"
        }
      ],
      "payable": false,
      "stateMutability": "view",
      "type": "function"
    },
    {
      "constant": true,
      "inputs": [
        {
          "name": "",
          "type": "bytes32"
        }
      ],
      "name": "charities",
      "outputs": [
        {
          "name": "charityName",
          "type": "string"
        },
        {
          "name": "amountChosenToDonate",
          "type": "uint256"
        },
        {
          "name": "amountDonated",
          "type": "uint256"
        },
        {
          "name": "exists",
          "type": "bool"
        }
      ],
      "payable": false,
      "stateMutability": "view",
      "type": "function"
    },
    {
      "constant": true,
      "inputs": [
        {
          "name": "owner",
          "type": "address"
        },
        {
          "name": "operator",
          "type": "address"
        }
      ],
      "name": "isApprovedForAll",
      "outputs": [
        {
          "name": "",
          "type": "bool"
        }
      ],
      "payable": false,
      "stateMutability": "view",
      "type": "function"
    },
    {
      "constant": false,
      "inputs": [
        {
          "name": "newOwner",
          "type": "address"
        }
      ],
      "name": "transferOwnership",
      "outputs": [],
      "payable": false,
      "stateMutability": "nonpayable",
      "type": "function"
    },
    {
      "inputs": [],
      "payable": false,
      "stateMutability": "nonpayable",
      "type": "constructor"
    },
    {
      "payable": true,
      "stateMutability": "payable",
      "type": "fallback"
    },
    {
      "anonymous": false,
      "inputs": [
        {
          "indexed": false,
          "name": "_tokenId",
          "type": "uint256"
        },
        {
          "indexed": false,
          "name": "_buyerID",
          "type": "bytes32"
        },
        {
          "indexed": false,
          "name": "_saleAmount",
          "type": "uint256"
        },
        {
          "indexed": false,
          "name": "_tokenURI",
          "type": "string"
        },
        {
          "indexed": false,
          "name": "_tokenMinter",
          "type": "address"
        }
      ],
      "name": "SoldAndMintedToken",
      "type": "event"
    },
    {
      "anonymous": false,
      "inputs": [
        {
          "indexed": false,
          "name": "_charityName",
          "type": "string"
        },
        {
          "indexed": false,
          "name": "_buyerId",
          "type": "bytes32"
        },
        {
          "indexed": false,
          "name": "_amountToBeDonated",
          "type": "uint256"
        }
      ],
      "name": "DonationChosen",
      "type": "event"
    },
    {
      "anonymous": false,
      "inputs": [
        {
          "indexed": false,
          "name": "_donationHash",
          "type": "bytes32"
        },
        {
          "indexed": false,
          "name": "_amountDonated",
          "type": "uint256"
        },
        {
          "indexed": false,
          "name": "_charityName",
          "type": "string"
        },
        {
          "indexed": false,
          "name": "_donationURL",
          "type": "string"
        }
      ],
      "name": "DonationMadeToCharity",
      "type": "event"
    },
    {
      "anonymous": false,
      "inputs": [
        {
          "indexed": false,
          "name": "_tokenId",
          "type": "uint256"
        },
        {
          "indexed": false,
          "name": "_buyerId",
          "type": "bytes32"
        },
        {
          "indexed": false,
          "name": "_buyerAddress",
          "type": "address"
        }
      ],
      "name": "RedeemedToken",
      "type": "event"
    },
    {
      "anonymous": false,
      "inputs": [
        {
          "indexed": true,
          "name": "previousOwner",
          "type": "address"
        }
      ],
      "name": "OwnershipRenounced",
      "type": "event"
    },
    {
      "anonymous": false,
      "inputs": [
        {
          "indexed": true,
          "name": "previousOwner",
          "type": "address"
        },
        {
          "indexed": true,
          "name": "newOwner",
          "type": "address"
        }
      ],
      "name": "OwnershipTransferred",
      "type": "event"
    },
    {
      "anonymous": false,
      "inputs": [
        {
          "indexed": true,
          "name": "from",
          "type": "address"
        },
        {
          "indexed": true,
          "name": "to",
          "type": "address"
        },
        {
          "indexed": true,
          "name": "tokenId",
          "type": "uint256"
        }
      ],
      "name": "Transfer",
      "type": "event"
    },
    {
      "anonymous": false,
      "inputs": [
        {
          "indexed": true,
          "name": "owner",
          "type": "address"
        },
        {
          "indexed": true,
          "name": "approved",
          "type": "address"
        },
        {
          "indexed": true,
          "name": "tokenId",
          "type": "uint256"
        }
      ],
      "name": "Approval",
      "type": "event"
    },
    {
      "anonymous": false,
      "inputs": [
        {
          "indexed": true,
          "name": "owner",
          "type": "address"
        },
        {
          "indexed": true,
          "name": "operator",
          "type": "address"
        },
        {
          "indexed": false,
          "name": "approved",
          "type": "bool"
        }
      ],
      "name": "ApprovalForAll",
      "type": "event"
    },
    {
      "constant": false,
      "inputs": [
        {
          "name": "_tokenURI",
          "type": "string"
        },
        {
          "name": "_saleAmount",
          "type": "uint256"
        },
        {
          "name": "_buyerID",
          "type": "string"
        },
        {
          "name": "_redemptionHash",
          "type": "string"
        }
      ],
      "name": "soldOrderToMint",
      "outputs": [
        {
          "name": "",
          "type": "uint256"
        }
      ],
      "payable": false,
      "stateMutability": "nonpayable",
      "type": "function"
    },
    {
      "constant": false,
      "inputs": [
        {
          "name": "_buyerID",
          "type": "string"
        },
        {
          "name": "_charityName",
          "type": "string"
        },
        {
          "name": "_chosenDonateAmount",
          "type": "uint256"
        }
      ],
      "name": "chooseDonation",
      "outputs": [
        {
          "name": "",
          "type": "bool"
        }
      ],
      "payable": false,
      "stateMutability": "nonpayable",
      "type": "function"
    },
    {
      "constant": false,
      "inputs": [
        {
          "name": "_proofHash",
          "type": "string"
        },
        {
          "name": "_proofURL",
          "type": "string"
        },
        {
          "name": "_madeDonationAmount",
          "type": "uint256"
        },
        {
          "name": "_charityName",
          "type": "string"
        }
      ],
      "name": "makeDonation",
      "outputs": [
        {
          "name": "",
          "type": "bool"
        }
      ],
      "payable": false,
      "stateMutability": "nonpayable",
      "type": "function"
    },
    {
      "constant": false,
      "inputs": [
        {
          "name": "_buyerID",
          "type": "string"
        },
        {
          "name": "_redemptionHash",
          "type": "string"
        },
        {
          "name": "_buyerAddress",
          "type": "address"
        },
        {
          "name": "_tokenId",
          "type": "uint256"
        }
      ],
      "name": "redeemOrder",
      "outputs": [
        {
          "name": "",
          "type": "bool"
        }
      ],
      "payable": false,
      "stateMutability": "nonpayable",
      "type": "function"
    },
    {
      "constant": false,
      "inputs": [
        {
          "name": "_buyerID",
          "type": "string"
        },
        {
          "name": "_redemptionHash",
          "type": "string"
        },
        {
          "name": "_buyerAddress",
          "type": "address"
        },
        {
          "name": "_tokenId",
          "type": "uint256"
        }
      ],
      "name": "safeRedeemOrder",
      "outputs": [
        {
          "name": "",
          "type": "bool"
        }
      ],
      "payable": false,
      "stateMutability": "nonpayable",
      "type": "function"
    },
    {
      "constant": true,
      "inputs": [
        {
          "name": "_buyerID",
          "type": "string"
        }
      ],
      "name": "getBuyerAmount",
      "outputs": [
        {
          "name": "total",
          "type": "uint256"
        }
      ],
      "payable": false,
      "stateMutability": "view",
      "type": "function"
    },
    {
      "constant": true,
      "inputs": [
        {
          "name": "_tokenId",
          "type": "uint256"
        }
      ],
      "name": "getRedemption",
      "outputs": [
        {
          "name": "",
          "type": "bool"
        }
      ],
      "payable": false,
      "stateMutability": "view",
      "type": "function"
    },
    {
      "constant": true,
      "inputs": [
        {
          "name": "_tokenId",
          "type": "uint256"
        }
      ],
      "name": "getTokenOwner",
      "outputs": [
        {
          "name": "",
          "type": "address"
        }
      ],
      "payable": false,
      "stateMutability": "view",
      "type": "function"
    },
    {
      "constant": false,
      "inputs": [
        {
          "name": "newOwner",
          "type": "address"
        }
      ],
      "name": "transferContract",
      "outputs": [],
      "payable": false,
      "stateMutability": "nonpayable",
      "type": "function"
    }
  ],
  "bytecode": "0x60806040523480156200001157600080fd5b50604080518082018252601481527f4c75786172697479204f7264657220546f6b656e0000000000000000000000006020808301919091528251808401909352600483527f4c5558300000000000000000000000000000000000000000000000000000000090830152908181620000b17f01ffc9a700000000000000000000000000000000000000000000000000000000640100000000620001b3810204565b620000e57f80ac58cd00000000000000000000000000000000000000000000000000000000640100000000620001b3810204565b620001197f780e9d6300000000000000000000000000000000000000000000000000000000640100000000620001b3810204565b81516200012e90600990602085019062000220565b5080516200014490600a90602084019062000220565b50620001797f5b5e139f00000000000000000000000000000000000000000000000000000000640100000000620001b3810204565b5050600c8054600160a060020a0319163317905550506000600d819055600e819055600f81905560118190556012819055601055620002c5565b7fffffffff000000000000000000000000000000000000000000000000000000008082161415620001e357600080fd5b7fffffffff00000000000000000000000000000000000000000000000000000000166000908152602081905260409020805460ff19166001179055565b828054600181600116156101000203166002900490600052602060002090601f016020900481019282601f106200026357805160ff191683800117855562000293565b8280016001018555821562000293579182015b828111156200029357825182559160200191906001019062000276565b50620002a1929150620002a5565b5090565b620002c291905b80821115620002a15760008155600101620002ac565b90565b612e1f80620002d56000396000f3006080604052600436106101e15763ffffffff7c0100000000000000000000000000000000000000000000000000000000600035041662b3704481146101e357806301ffc9a71461020a57806303d52de51461025557806306fdde031461026a578063081812fc146102f4578063095ea7b31461032857806318160ddd1461034c5780631953cc21146103615780631a168b58146103795780631f0bf9411461038e57806323b872dd146103a35780632f745c59146103cd57806330471fee146103f157806342842e0e1461040657806347635dac146104305780634f6ccce7146104515780635bab243e146104695780636352211e1461050257806370a082311461051a578063715018a61461053b5780637ecbaf80146105505780638501284814610588578063882a8f5c146106305780638da5cb5b146107065780638f32d59b1461071b5780638fc48ca11461073057806395d89b411461080b578063a22cb46514610820578063a5cd761f14610846578063ad8a1aef1461085e578063b295806214610906578063b88d4fde14610a11578063c0f4312314610a80578063c5c4744c14610ad9578063c87b56dd14610aee578063e139d8c614610b06578063e985e9c514610baf578063f2fde38b14610bd6578063f41893cd14610bf7575b005b3480156101ef57600080fd5b506101f8610cd2565b60408051918252519081900360200190f35b34801561021657600080fd5b506102417bffffffffffffffffffffffffffffffffffffffffffffffffffffffff1960043516610cd8565b604080519115158252519081900360200190f35b34801561026157600080fd5b506101f8610d0c565b34801561027657600080fd5b5061027f610d12565b6040805160208082528351818301528351919283929083019185019080838360005b838110156102b95781810151838201526020016102a1565b50505050905090810190601f1680156102e65780820380516001836020036101000a031916815260200191505b509250505060405180910390f35b34801561030057600080fd5b5061030c600435610da9565b60408051600160a060020a039092168252519081900360200190f35b34801561033457600080fd5b506101e1600160a060020a0360043516602435610ddb565b34801561035857600080fd5b506101f8610e84565b34801561036d57600080fd5b50610241600435610e8a565b34801561038557600080fd5b506101f8610ea9565b34801561039a57600080fd5b506101f8610eaf565b3480156103af57600080fd5b506101e1600160a060020a0360043581169060243516604435610eb5565b3480156103d957600080fd5b506101f8600160a060020a0360043516602435610f43565b3480156103fd57600080fd5b506101f8610f90565b34801561041257600080fd5b506101e1600160a060020a0360043581169060243516604435610f96565b34801561043c57600080fd5b506101e1600160a060020a0360043516610fb7565b34801561045d57600080fd5b506101f8600435610fd6565b34801561047557600080fd5b506040805160206004803580820135601f810184900484028501840190955284845261024194369492936024939284019190819084018382808284375050604080516020601f89358b018035918201839004830284018301909452808352979a999881019791965091820194509250829150840183828082843750949750509335945061100b9350505050565b34801561050e57600080fd5b5061030c600435611379565b34801561052657600080fd5b506101f8600160a060020a03600435166113a7565b34801561054757600080fd5b506101e16113da565b34801561055c57600080fd5b50610568600435611437565b604080519384526020840192909252151582820152519081900360600190f35b34801561059457600080fd5b506040805160206004803580820135601f810184900484028501840190955284845261024194369492936024939284019190819084018382808284375050604080516020601f89358b018035918201839004830284018301909452808352979a99988101979196509182019450925082915084018382808284375094975050508335600160a060020a031694505050602090910135905061145b565b34801561063c57600080fd5b5061064860043561172b565b60408051898152600160a060020a03808916928201929092529086166060820152841515608082015260a0810184905260c0810183905281151560e082015261010060208083018281528a519284019290925289516101208401918b019080838360005b838110156106c45781810151838201526020016106ac565b50505050905090810190601f1680156106f15780820380516001836020036101000a031916815260200191505b50995050505050505050505060405180910390f35b34801561071257600080fd5b5061030c61180e565b34801561072757600080fd5b5061024161181d565b34801561073c57600080fd5b506040805160206004803580820135601f81018490048402850184019095528484526101f894369492936024939284019190819084018382808284375050604080516020601f818a01358b0180359182018390048302840183018552818452989b8a359b909a90999401975091955091820193509150819084018382808284375050604080516020601f89358b018035918201839004830284018301909452808352979a99988101979196509182019450925082915084018382808284375094975061182e9650505050505050565b34801561081757600080fd5b5061027f611c76565b34801561082c57600080fd5b506101e1600160a060020a03600435166024351515611cd7565b34801561085257600080fd5b5061030c600435611d5b565b34801561086a57600080fd5b506040805160206004803580820135601f810184900484028501840190955284845261024194369492936024939284019190819084018382808284375050604080516020601f89358b018035918201839004830284018301909452808352979a99988101979196509182019450925082915084018382808284375094975050508335600160a060020a0316945050506020909101359050611d6e565b34801561091257600080fd5b5061091e600435611fe9565b60408051908101839052600160a060020a038216606082015260808082528551908201528451819060208083019160a084019189019080838360005b8381101561097257818101518382015260200161095a565b50505050905090810190601f16801561099f5780820380516001836020036101000a031916815260200191505b50838103825286518152865160209182019188019080838360005b838110156109d25781810151838201526020016109ba565b50505050905090810190601f1680156109ff5780820380516001836020036101000a031916815260200191505b50965050505050505060405180910390f35b348015610a1d57600080fd5b50604080516020601f6064356004818101359283018490048402850184019095528184526101e194600160a060020a03813581169560248035909216956044359536956084940191819084018382808284375094975061213e9650505050505050565b348015610a8c57600080fd5b506040805160206004803580820135601f81018490048402850184019095528484526101f89436949293602493928401919081908401838280828437509497506121669650505050505050565b348015610ae557600080fd5b506101f8612267565b348015610afa57600080fd5b5061027f60043561226d565b348015610b1257600080fd5b50610b1e600435612322565b604051808060200185815260200184815260200183151515158152602001828103825286818151815260200191508051906020019080838360005b83811015610b71578181015183820152602001610b59565b50505050905090810190601f168015610b9e5780820380516001836020036101000a031916815260200191505b509550505050505060405180910390f35b348015610bbb57600080fd5b50610241600160a060020a03600435811690602435166123da565b348015610be257600080fd5b506101e1600160a060020a0360043516612408565b348015610c0357600080fd5b506040805160206004803580820135601f810184900484028501840190955284845261024194369492936024939284019190819084018382808284375050604080516020601f89358b018035918201839004830284018301909452808352979a99988101979196509182019450925082915084018382808284375050604080516020601f818a01358b0180359182018390048302840183018552818452989b8a359b909a9099940197509195509182019350915081908401838280828437509497506124249650505050505050565b600f5481565b7bffffffffffffffffffffffffffffffffffffffffffffffffffffffff191660009081526020819052604090205460ff1690565b60105481565b60098054604080516020601f6002600019610100600188161502019095169490940493840181900481028201810190925282815260609390929091830182828015610d9e5780601f10610d7357610100808354040283529160200191610d9e565b820191906000526020600020905b815481529060010190602001808311610d8157829003601f168201915b505050505090505b90565b6000610db4826126fe565b1515610dbf57600080fd5b50600090815260026020526040902054600160a060020a031690565b6000610de682611379565b9050600160a060020a038381169082161415610e0157600080fd5b33600160a060020a0382161480610e1d5750610e1d81336123da565b1515610e2857600080fd5b6000828152600260205260408082208054600160a060020a031916600160a060020a0387811691821790925591518593918516917f8c5be1e5ebec7d5bd14f71427d1e84f3dd0314c0f7b2291e5b200ac8c7c3b92591a4505050565b60075490565b60009081526013602052604090206003015460a060020a900460ff1690565b60115481565b60125481565b610ebf338261271b565b1515610eca57600080fd5b600160a060020a0382161515610edf57600080fd5b610ee9838261277a565b610ef383826127de565b610efd82826128e5565b8082600160a060020a031684600160a060020a03167fddf252ad1be2c89b69c2b068fc378daa952ba7f163c4a11628f55a4df523b3ef60405160405180910390a4505050565b6000610f4e836113a7565b8210610f5957600080fd5b600160a060020a0383166000908152600560205260409020805483908110610f7d57fe5b9060005260206000200154905092915050565b600d5481565b610fb2838383602060405190810160405280600081525061213e565b505050565b610fbf61181d565b1515610fca57600080fd5b610fd381612408565b50565b6000610fe0610e84565b8210610feb57600080fd5b6007805483908110610ff957fe5b90600052602060002001549050919050565b600080600080866040516020018082805190602001908083835b602083106110445780518252601f199092019160209182019101611025565b6001836020036101000a0380198251168184511680821785525050505050509050019150506040516020818303038152906040526040518082805190602001908083835b602083106110a75780518252601f199092019160209182019101611088565b51815160001960209485036101000a019081169019919091161790526040805194909201849003909320600081815260169094529220600201549196505060ff16151560011491506110fa905057600080fd5b60008381526016602052604090206001810154905403915084821061136a5760108054860190556011805460019081019091556000848152601660209081526040918290209092018054880190555187518892918201918291908401908083835b6020831061117a5780518252601f19909201916020918201910161115b565b6001836020036101000a0380198251168184511680821785525050505050509050019150506040516020818303038152906040526040518082805190602001908083835b602083106111dd5780518252601f1990920191602091820191016111be565b51815160209384036101000a6000190180199092169116179052604080519290940182900390912060008181526014909252929020600301549194505060ff1615915061124290505760008181526014602052604090206001018054860190556112b6565b604080516080810182528781526020808201889052600082840181905260016060840152848152601482529290922081518051929391926112869284920190612d3b565b5060208201516001820155604082015160028201556060909101516003909101805460ff19169115159190911790555b604080516020808201869052918101879052606080825288519082015287517fe1e2f04378c01049d9d077035633dcf281eb34649d091dd1d7d1f0c3b4686fa092899287928a928291608083019187019080838360005b8381101561132557818101518382015260200161130d565b50505050905090810190601f1680156113525780820380516001836020036101000a031916815260200191505b5094505050505060405180910390a16001935061136f565b600093505b5050509392505050565b600081815260016020526040812054600160a060020a031680151561139d57600080fd5b8091505b50919050565b6000600160a060020a03821615156113be57600080fd5b50600160a060020a031660009081526003602052604090205490565b6113e261181d565b15156113ed57600080fd5b600c54604051600160a060020a03909116907ff8df31144d9c2f0f6b59d69b8b98abd5459d07f2742c4df920b25aae33c6482090600090a2600c8054600160a060020a0319169055565b60166020526000908152604090208054600182015460029092015490919060ff1683565b6000806000866040516020018082805190602001908083835b602083106114935780518252601f199092019160209182019101611474565b6001836020036101000a0380198251168184511680821785525050505050509050019150506040516020818303038152906040526040518082805190602001908083835b602083106114f65780518252601f1990920191602091820191016114d7565b51815160001960209485036101000a019081169019919091161790526040805194909201849003909320600081815260169094529220600201549195505060ff1615156001149150611549905057600080fd5b856040516020018082805190602001908083835b6020831061157c5780518252601f19909201916020918201910161155d565b6001836020036101000a0380198251168184511680821785525050505050509050019150506040516020818303038152906040526040518082805190602001908083835b602083106115df5780518252601f1990920191602091820191016115c0565b51815160001960209485036101000a01908116901991909116179052604080519490920184900390932060008a815260139094529220600601549194505060ff1615156001149150611632905057600080fd5b600160a060020a038516151561164757600080fd5b600084815260136020526040902060040154821461166457600080fd5b600084815260136020526040902060050154811461168157600080fd5b6000848152601360205260409020600301805460a060020a600160a060020a0319909116600160a060020a0388161774ff000000000000000000000000000000000000000019161790556116d6338686610f96565b6040805185815260208101849052600160a060020a0387168183015290517f228808fc7f1cf2105ae7d045c73ecb559cd36038b92afc74b2d6c12adc0598729181900360600190a15060019695505050505050565b6013602090815260009182526040918290208054600180830180548651600293821615610100026000190190911692909204601f8101869004860283018601909652858252919492939092908301828280156117c85780601f1061179d576101008083540402835291602001916117c8565b820191906000526020600020905b8154815290600101906020018083116117ab57829003601f168201915b50505060028401546003850154600486015460058701546006909701549596600160a060020a0393841696938316955060ff60a060020a90930483169450909290911688565b600c54600160a060020a031690565b600c54600160a060020a0316331490565b60008060008061183c61181d565b151561184757600080fd5b600d546001019250611858836126fe565b1561186257600080fd5b856040516020018082805190602001908083835b602083106118955780518252601f199092019160209182019101611876565b6001836020036101000a0380198251168184511680821785525050505050509050019150506040516020818303038152906040526040518082805190602001908083835b602083106118f85780518252601f1990920191602091820191016118d9565b51815160209384036101000a60001901801990921691161790526040519190930181900381208a519097508a955090830193508392850191508083835b602083106119545780518252601f199092019160209182019101611935565b6001836020036101000a0380198251168184511680821785525050505050509050019150506040516020818303038152906040526040518082805190602001908083835b602083106119b75780518252601f199092019160209182019101611998565b51815160209384036101000a6000190180199092169116179052604080519290940182900390912060008881526016909252929020600201549194505060ff1615159150611a54905057604080516060810182528881526000602080830182815260018486018181528885526016909352949092209251835590519282019290925590516002909101805460ff1916911515919091179055611a69565b60008281526016602052604090208054880190555b600e805488019055600d805460019081019182905560408051610100810182528a815260208082018d815233838501819052606084015260006080840181905260a0840189905260c0840188905260e084018690529586526013825292909420815181559151805191949293611ae59390850192910190612d3b565b506040820151600282018054600160a060020a0319908116600160a060020a0393841617909155606084015160038401805460808701519316919093161774ff0000000000000000000000000000000000000000191660a060020a9115159190910217905560a0820151600482015560c0820151600582015560e0909101516006909101805460ff1916911515919091179055600d54611b8690339061292e565b611b92600d548961297d565b7f17e7bb297cd22dac84bdc610a392a7526cbb33fd11aae071006157a11779dff1600d5483898b336040518086815260200185600019166000191681526020018481526020018060200183600160a060020a0316600160a060020a03168152602001828103825284818151815260200191508051906020019080838360005b83811015611c29578181015183820152602001611c11565b50505050905090810190601f168015611c565780820380516001836020036101000a031916815260200191505b50965050505050505060405180910390a15050600d549695505050505050565b600a8054604080516020601f6002600019610100600188161502019095169490940493840181900481028201810190925282815260609390929091830182828015610d9e5780601f10610d7357610100808354040283529160200191610d9e565b600160a060020a038216331415611ced57600080fd5b336000818152600460209081526040808320600160a060020a03871680855290835292819020805460ff1916861515908117909155815190815290519293927f17307eab39ab6107e8899845ad3d59bd9653f200f220920489ca2b5937696c31929181900390910190a35050565b600080611d6783611379565b9392505050565b6000806000866040516020018082805190602001908083835b60208310611da65780518252601f199092019160209182019101611d87565b6001836020036101000a0380198251168184511680821785525050505050509050019150506040516020818303038152906040526040518082805190602001908083835b60208310611e095780518252601f199092019160209182019101611dea565b51815160001960209485036101000a019081169019919091161790526040805194909201849003909320600081815260169094529220600201549195505060ff1615156001149150611e5c905057600080fd5b856040516020018082805190602001908083835b60208310611e8f5780518252601f199092019160209182019101611e70565b6001836020036101000a0380198251168184511680821785525050505050509050019150506040516020818303038152906040526040518082805190602001908083835b60208310611ef25780518252601f199092019160209182019101611ed3565b51815160001960209485036101000a01908116901991909116179052604080519490920184900390932060008a815260139094529220600601549194505060ff1615156001149150611f45905057600080fd5b600160a060020a0385161515611f5a57600080fd5b6000848152601360205260409020600401548214611f7757600080fd5b6000848152601360205260409020600501548114611f9457600080fd5b6000848152601360205260409020600301805460a060020a600160a060020a0319909116600160a060020a0388161774ff000000000000000000000000000000000000000019161790556116d6338686610eb5565b60156020908152600091825260409182902080548351601f600260001961010060018616150201909316929092049182018490048402810184019094528084529092918391908301828280156120805780601f1061205557610100808354040283529160200191612080565b820191906000526020600020905b81548152906001019060200180831161206357829003601f168201915b505050505090806001018054600181600116156101000203166002900480601f01602080910402602001604051908101604052809291908181526020018280546001816001161561010002031660029004801561211e5780601f106120f35761010080835404028352916020019161211e565b820191906000526020600020905b81548152906001019060200180831161210157829003601f168201915b505050506002830154600390930154919291600160a060020a0316905084565b612149848484610eb5565b612155848484846129b0565b151561216057600080fd5b50505050565b600080826040516020018082805190602001908083835b6020831061219c5780518252601f19909201916020918201910161217d565b6001836020036101000a0380198251168184511680821785525050505050509050019150506040516020818303038152906040526040518082805190602001908083835b602083106121ff5780518252601f1990920191602091820191016121e0565b51815160209384036101000a6000190180199092169116179052604080519290940182900390912060008181526016909252929020600201549194505060ff1615915061225e90505760008181526016602052604090205491506113a1565b50600092915050565b600e5481565b6060612278826126fe565b151561228357600080fd5b6000828152600b602090815260409182902080548351601f6002600019610100600186161502019093169290920491820184900484028101840190945280845290918301828280156123165780601f106122eb57610100808354040283529160200191612316565b820191906000526020600020905b8154815290600101906020018083116122f957829003601f168201915b50505050509050919050565b60146020908152600091825260409182902080548351601f600260001961010060018616150201909316929092049182018490048402810184019094528084529092918391908301828280156123b95780601f1061238e576101008083540402835291602001916123b9565b820191906000526020600020905b81548152906001019060200180831161239c57829003601f168201915b50505050600183015460028401546003909401549293909290915060ff1684565b600160a060020a03918216600090815260046020908152604080832093909416825291909152205460ff1690565b61241061181d565b151561241b57600080fd5b610fd381612b32565b600080600061243161181d565b151561243c57600080fd5b600f54600e540391508482101561245257600080fd5b866040516020018082805190602001908083835b602083106124855780518252601f199092019160209182019101612466565b6001836020036101000a0380198251168184511680821785525050505050509050019150506040516020818303038152906040526040518082805190602001908083835b602083106124e85780518252601f1990920191602091820191016124c9565b51815160209384036101000a60001901801990921691161790526040805192909401829003909120600081815260159092529290206003015491945050600160a060020a031615915061253c905057600080fd5b601280546001019055600f8054860190556040805160808101825285815260208082018990528183018890523360608301526000848152601582529290922081518051929391926125909284920190612d3b565b5060208281015180516125a99260018501920190612d3b565b50604082810151600283015560609283015160039092018054600160a060020a031916600160a060020a039093169290921790915580518381526020808201899052608092820183815288519383019390935287517f965e11cadfce1b707c18dbda4f6b490b4088fb42bf5de6fbbfb27e85548c26d09486948b948b948e94919384019160a085019187019080838360005b8381101561265357818101518382015260200161263b565b50505050905090810190601f1680156126805780820380516001836020036101000a031916815260200191505b50838103825284518152845160209182019186019080838360005b838110156126b357818101518382015260200161269b565b50505050905090810190601f1680156126e05780820380516001836020036101000a031916815260200191505b50965050505050505060405180910390a15060019695505050505050565b600090815260016020526040902054600160a060020a0316151590565b60008061272783611379565b905080600160a060020a031684600160a060020a03161480612762575083600160a060020a031661275784610da9565b600160a060020a0316145b80612772575061277281856123da565b949350505050565b81600160a060020a031661278d82611379565b600160a060020a0316146127a057600080fd5b600081815260026020526040902054600160a060020a0316156127da5760008181526002602052604090208054600160a060020a03191690555b5050565b60008060006127ed8585612ba3565b600084815260066020908152604080832054600160a060020a038916845260059092529091205490935061282890600163ffffffff612c2c16565b600160a060020a03861660009081526005602052604090208054919350908390811061285057fe5b90600052602060002001549050806005600087600160a060020a0316600160a060020a031681526020019081526020016000208481548110151561289057fe5b6000918252602080832090910192909255600160a060020a03871681526005909152604090208054906128c7906000198301612db9565b50600093845260066020526040808520859055908452909220555050565b60006128f18383612c43565b50600160a060020a039091166000908152600560209081526040808320805460018101825590845282842081018590559383526006909152902055565b6129388282612cc6565b600780546000838152600860205260408120829055600182018355919091527fa66cc928b5edb82af9bd49922954155ab7b0942694bea4ce44661d9a8736c688015550565b612986826126fe565b151561299157600080fd5b6000828152600b602090815260409091208251610fb292840190612d3b565b6000806129c585600160a060020a0316612d21565b15156129d45760019150612b29565b6040517f150b7a020000000000000000000000000000000000000000000000000000000081523360048201818152600160a060020a03898116602485015260448401889052608060648501908152875160848601528751918a169463150b7a0294938c938b938b93909160a490910190602085019080838360005b83811015612a67578181015183820152602001612a4f565b50505050905090810190601f168015612a945780820380516001836020036101000a031916815260200191505b5095505050505050602060405180830381600087803b158015612ab657600080fd5b505af1158015612aca573d6000803e3d6000fd5b505050506040513d6020811015612ae057600080fd5b50517bffffffffffffffffffffffffffffffffffffffffffffffffffffffff1981167f150b7a020000000000000000000000000000000000000000000000000000000014925090505b50949350505050565b600160a060020a0381161515612b4757600080fd5b600c54604051600160a060020a038084169216907f8be0079c531659141344cd1fd0a4f28419497f9722a3daafe3b4186f6b6457e090600090a3600c8054600160a060020a031916600160a060020a0392909216919091179055565b81600160a060020a0316612bb682611379565b600160a060020a031614612bc957600080fd5b600160a060020a038216600090815260036020526040902054612bf390600163ffffffff612c2c16565b600160a060020a039092166000908152600360209081526040808320949094559181526001909152208054600160a060020a0319169055565b60008083831115612c3c57600080fd5b5050900390565b600081815260016020526040902054600160a060020a031615612c6557600080fd5b60008181526001602081815260408084208054600160a060020a031916600160a060020a0388169081179091558452600390915290912054612ca691612d29565b600160a060020a0390921660009081526003602052604090209190915550565b600160a060020a0382161515612cdb57600080fd5b612ce582826128e5565b6040518190600160a060020a038416906000907fddf252ad1be2c89b69c2b068fc378daa952ba7f163c4a11628f55a4df523b3ef908290a45050565b6000903b1190565b600082820183811015611d6757600080fd5b828054600181600116156101000203166002900490600052602060002090601f016020900481019282601f10612d7c57805160ff1916838001178555612da9565b82800160010185558215612da9579182015b82811115612da9578251825591602001919060010190612d8e565b50612db5929150612dd9565b5090565b815481835581811115610fb257600083815260209020610fb29181019083015b610da691905b80821115612db55760008155600101612ddf5600a165627a7a723058209d27f7ba68582c27ccac437aa6258f03d0269abc4baa34f47a8588240fb9c1b50029",
  "source": "pragma solidity ^0.4.24;\n\nimport '../openzeppelin-solidity-master/contracts/token/ERC721/ERC721Full.sol';\nimport \"../openzeppelin-solidity-master/contracts/ownership/Ownable.sol\";\n\ncontract LuxOrders is ERC721Full, Ownable {\n\n  //state variables\n\n    //tokenid index\n    uint256 public orderIndex;\n\n    //total raised in sales uint256 USD\n    uint256 public totalRaised;\n\n    //total verifiably donated to charities\n    uint256 public totalDonated;\n\n    //total amount chosen to be donated\n    uint256 public totalChosenDonatedAmount;\n\n    //total number of chosen donations\n    uint256 public totalChosenDonations;\n\n    //total number of made donations\n    uint256 public totalMadeDonations;\n\n    //token mapping\n    mapping (uint256 => OrderToken) public orderTokens;\n\n    //token struct for order -> which represents a sale\n    struct OrderToken {\n      uint256 saleAmount;\n      string tokenURI;\n      address generation;\n      address owner;\n      bool redeemed;\n      bytes32 buyerHash;\n      bytes32 redemptionHash;\n      bool exists; //always true\n    }\n\n    //charities mapping to track the total amount chosen to be donated\n    //to each charity, id is SHA256(full name of charity)\n    mapping (bytes32 => Charity) public charities;\n    struct Charity {\n      string charityName;\n      uint256 amountChosenToDonate;\n      uint256 amountDonated;\n      bool exists; //always true\n    }\n\n    //MadeDonations is a list of donations actually made\n    //id is hash of donation IPFS url, indexed by proofHash\n    mapping (bytes32 => MadeDonation) public madeDonations;\n    struct MadeDonation {\n      string charityName; //name of charity luxarity sent proceeds to\n      string donationProofUrl;\n      uint256 amountDonated; //amount donated via grant to charity\n      address donorAddress; //address of owner of contract (luxarity)\n    }\n\n    //buyers mapping with buyer struct bytes32 => buyer\n    mapping (bytes32 => Buyer) public buyers;\n    struct Buyer {\n      uint256 totalContributed; //total amount the buyer has bought in USD\n      uint256 totalDonationsAllocated; //amount of donation capital allocated\n      bool exists; //always true\n    }\n\n\n  //constructor for NFT token, name = Luxarity, symbol = LUX\n    constructor() ERC721Full('Luxarity Order Token', 'LUX0') public {\n      //tokenid index\n      orderIndex = 0;\n      //total capital raised uint256 USD\n      totalRaised = 0;\n      //total donated by luxarity (USD)\n      totalDonated = 0;\n      //total number of chosen donations\n      totalChosenDonations = 0;\n      //total number of made donations\n      totalMadeDonations = 0;\n      //total amount chosen to be donated\n      totalChosenDonatedAmount = 0;\n    }\n\n  //events\n    event SoldAndMintedToken (uint256 _tokenId, bytes32 _buyerID, uint256 _saleAmount, string _tokenURI, address _tokenMinter);\n    //event when donation is chosen (bytes32, amount, charityName, donation id)\n    event DonationChosen (string _charityName, bytes32 _buyerId, uint256 _amountToBeDonated);\n    //event when donation is made by luxarity\n    event DonationMadeToCharity (bytes32 _donationHash, uint256 _amountDonated, string _charityName, string _donationURL);\n    //event when token is redeemed\n    event RedeemedToken (uint256 _tokenId, bytes32 _buyerId, address _buyerAddress);\n\n  //cuase functions\n\n    //mint function - when Orders are sold in an order - the receipt should be tokenized\n    function soldOrderToMint(string _tokenURI, uint256 _saleAmount, string _buyerID, string _redemptionHash) public onlyOwner returns (uint) {\n\n      //1.0 Ensure token doesn't already exists\n      uint256 testIndex = orderIndex + 1;\n      require(_exists(testIndex) == false);\n\n      //create buyerhash and redemption hash\n      bytes32 buyerID = keccak256(abi.encodePacked(_buyerID));\n      bytes32 redemptionHash = keccak256(abi.encodePacked(_redemptionHash));\n\n      //2.0 check if buyer already exists\n      if (!buyers[buyerID].exists) {\n        //adding new buyer to buyers mapping\n        buyers[buyerID] = Buyer(_saleAmount, 0, true);\n      } else {\n        //update existing buyer\n        buyers[buyerID].totalContributed += _saleAmount;\n      }\n\n      //increment total donations\n      totalRaised += _saleAmount;\n\n      //increment orderIndex\n      orderIndex += 1;\n\n      //create new sale\n      orderTokens[orderIndex] = OrderToken(_saleAmount, _tokenURI, msg.sender, msg.sender, false, buyerID, redemptionHash, true);\n\n      //mint token\n      _mint(msg.sender, orderIndex);\n\n      //set metadata\n      _setTokenURI(orderIndex, _tokenURI);\n\n      //emit event\n      emit SoldAndMintedToken(orderIndex, buyerID, _saleAmount, _tokenURI, msg.sender);\n\n      //return\n      return orderIndex;\n\n    }\n\n    //chooseDonation function\n    function chooseDonation(string _buyerID, string _charityName, uint256 _chosenDonateAmount) public returns (bool) {\n      //buyer check to operate function instead of modifier for conversion reasons\n      bytes32 buyerID = keccak256(abi.encodePacked(_buyerID));\n      require(buyers[buyerID].exists == true);\n      //check if amount to donate is less than or equal to the amount left\n      uint256 leftover = buyers[buyerID].totalContributed - buyers[buyerID].totalDonationsAllocated;\n      //if it is, proceed\n      if (leftover >= _chosenDonateAmount) {\n        //incement totalChosenDonatedAmount\n        totalChosenDonatedAmount += _chosenDonateAmount;\n        //increment total number of donations chosen to be made\n        totalChosenDonations += 1;\n        //update buyers donation allocation\n        buyers[buyerID].totalDonationsAllocated += _chosenDonateAmount;\n        //check if charity is new\n        bytes32 charityHash = keccak256(abi.encodePacked(_charityName));\n        //if it is, add to charity mapping\n        if (charities[charityHash].exists) {\n          charities[charityHash].amountChosenToDonate += _chosenDonateAmount;\n        } else {\n          //if not, update charity struct\n          charities[charityHash] = Charity(_charityName, _chosenDonateAmount, 0, true);\n        }\n        //emit event ChosenToDonate\n        emit DonationChosen(_charityName, buyerID, _chosenDonateAmount);\n        //return true\n        return true;\n      }\n      //if it is not, return false\n      return false;\n    }\n\n    //make donation function\n    function makeDonation(string _proofHash, string _proofURL, uint256 _madeDonationAmount, string _charityName) public onlyOwner returns (bool) {\n      uint256 leftover = totalRaised - totalDonated;\n      require(leftover >= _madeDonationAmount);\n\n      //create proper hash (sha256 of data proof of donation)\n      bytes32 proofHash = keccak256(abi.encodePacked(_proofHash));\n\n      //check if donation doesn't exist yet\n      require(madeDonations[proofHash].donorAddress == address(0));\n      //increment total made donations\n      totalMadeDonations += 1;\n      //total donated sum amount increased\n      totalDonated += _madeDonationAmount;\n\n      //add to made donations mapping\n      madeDonations[proofHash] = MadeDonation(_charityName, _proofURL, _madeDonationAmount, msg.sender);\n      //emit event\n      emit DonationMadeToCharity(proofHash, _madeDonationAmount, _charityName, _proofURL);\n      //return\n      return true;\n    }\n\n    //redeem token\n    function redeemOrder(string _buyerID, string _redemptionHash, address _buyerAddress, uint256 _tokenId) public returns (bool) {\n\n      //create buyerhash\n      bytes32 buyerID = keccak256(abi.encodePacked(_buyerID));\n      require(buyers[buyerID].exists == true);\n\n      //create redemption hash\n      bytes32 redemptionHash = keccak256(abi.encodePacked(_redemptionHash));\n\n      //make sure address is valid\n      require(orderTokens[_tokenId].exists == true);\n      require(_buyerAddress != address(0));\n      require(orderTokens[_tokenId].buyerHash == buyerID);\n      require(orderTokens[_tokenId].redemptionHash == redemptionHash);\n\n      orderTokens[_tokenId].owner = _buyerAddress;\n      orderTokens[_tokenId].redeemed = true;\n      //conduct transfer from Luxarity to address\n      transferFrom(msg.sender, _buyerAddress, _tokenId);\n      //emit event\n      emit RedeemedToken(_tokenId, buyerID, _buyerAddress);\n      return true;\n    }\n\n    //safe redeem token\n    function safeRedeemOrder(string _buyerID, string _redemptionHash, address _buyerAddress, uint256 _tokenId) public returns (bool) {\n      //create buyerhash\n      bytes32 buyerID = keccak256(abi.encodePacked(_buyerID));\n      require(buyers[buyerID].exists == true);\n\n      //create redemption hash\n      bytes32 redemptionHash = keccak256(abi.encodePacked(_redemptionHash));\n\n      //make sure address is valid\n      require(orderTokens[_tokenId].exists == true);\n      require(_buyerAddress != address(0));\n      require(orderTokens[_tokenId].buyerHash == buyerID);\n      require(orderTokens[_tokenId].redemptionHash == redemptionHash);\n\n      orderTokens[_tokenId].owner = _buyerAddress;\n      orderTokens[_tokenId].redeemed = true;\n      //conduct transfer from Luxarity to address\n      safeTransferFrom(msg.sender, _buyerAddress, _tokenId);\n      //emit event\n      emit RedeemedToken(_tokenId, buyerID, _buyerAddress);\n      return true;\n    }\n\n  //call functions\n    //get how much a buyer has donated in total\n    function getBuyerAmount(string _buyerID) public view returns (uint256 total) {\n      //create buyerhash\n      bytes32 buyerID = keccak256(abi.encodePacked(_buyerID));\n      if (buyers[buyerID].exists) {\n        return buyers[buyerID].totalContributed;\n      }\n      return 0;\n\t\t}\n\n    //get boolean to see if NFT has been redeemed or not\n    function getRedemption(uint _tokenId) public view returns (bool) {\n      return orderTokens[_tokenId].redeemed;\n\t\t}\n\n    //get token ownerOf\n    function getTokenOwner(uint _tokenId) public view returns (address) {\n      address owner = ownerOf(_tokenId);\n      return owner;\n    }\n\n    //transfer ownership of contract\n    function transferContract(address newOwner) public onlyOwner {\n      transferOwnership(newOwner);\n    }\n\n    //fallback\n\t  function() payable public { }\n}\n",
  "sourcePath": "/Applications/MAMP/htdocs/LuxToken/contracts/LuxOrders.sol",
  "compiler": {
    "name": "solc",
    "version": "0.4.24+commit.e67f0147.Emscripten.clang"
  },
  "schemaVersion": "2.0.1",
  "updatedAt": "2018-10-15T18:42:58.493Z"
}