{
  "contractName": "LuxTokens",
  "abi": [
    {
      "constant": true,
      "inputs": [],
      "name": "totalDonated",
      "outputs": [
        {
          "name": "",
          "type": "uint256"
        }
      ],
      "payable": false,
      "stateMutability": "view",
      "type": "function"
    },
    {
      "constant": true,
      "inputs": [
        {
          "name": "interfaceId",
          "type": "bytes4"
        }
      ],
      "name": "supportsInterface",
      "outputs": [
        {
          "name": "",
          "type": "bool"
        }
      ],
      "payable": false,
      "stateMutability": "view",
      "type": "function"
    },
    {
      "constant": true,
      "inputs": [],
      "name": "name",
      "outputs": [
        {
          "name": "",
          "type": "string"
        }
      ],
      "payable": false,
      "stateMutability": "view",
      "type": "function"
    },
    {
      "constant": true,
      "inputs": [
        {
          "name": "tokenId",
          "type": "uint256"
        }
      ],
      "name": "getApproved",
      "outputs": [
        {
          "name": "",
          "type": "address"
        }
      ],
      "payable": false,
      "stateMutability": "view",
      "type": "function"
    },
    {
      "constant": false,
      "inputs": [
        {
          "name": "to",
          "type": "address"
        },
        {
          "name": "tokenId",
          "type": "uint256"
        }
      ],
      "name": "approve",
      "outputs": [],
      "payable": false,
      "stateMutability": "nonpayable",
      "type": "function"
    },
    {
      "constant": true,
      "inputs": [],
      "name": "totalSupply",
      "outputs": [
        {
          "name": "",
          "type": "uint256"
        }
      ],
      "payable": false,
      "stateMutability": "view",
      "type": "function"
    },
    {
      "constant": true,
      "inputs": [],
      "name": "totalChosenDonations",
      "outputs": [
        {
          "name": "",
          "type": "uint256"
        }
      ],
      "payable": false,
      "stateMutability": "view",
      "type": "function"
    },
    {
      "constant": true,
      "inputs": [],
      "name": "totalMadeDonations",
      "outputs": [
        {
          "name": "",
          "type": "uint256"
        }
      ],
      "payable": false,
      "stateMutability": "view",
      "type": "function"
    },
    {
      "constant": false,
      "inputs": [
        {
          "name": "from",
          "type": "address"
        },
        {
          "name": "to",
          "type": "address"
        },
        {
          "name": "tokenId",
          "type": "uint256"
        }
      ],
      "name": "transferFrom",
      "outputs": [],
      "payable": false,
      "stateMutability": "nonpayable",
      "type": "function"
    },
    {
      "constant": true,
      "inputs": [],
      "name": "totalItemsSold",
      "outputs": [
        {
          "name": "",
          "type": "uint256"
        }
      ],
      "payable": false,
      "stateMutability": "view",
      "type": "function"
    },
    {
      "constant": true,
      "inputs": [
        {
          "name": "owner",
          "type": "address"
        },
        {
          "name": "index",
          "type": "uint256"
        }
      ],
      "name": "tokenOfOwnerByIndex",
      "outputs": [
        {
          "name": "",
          "type": "uint256"
        }
      ],
      "payable": false,
      "stateMutability": "view",
      "type": "function"
    },
    {
      "constant": false,
      "inputs": [
        {
          "name": "from",
          "type": "address"
        },
        {
          "name": "to",
          "type": "address"
        },
        {
          "name": "tokenId",
          "type": "uint256"
        }
      ],
      "name": "safeTransferFrom",
      "outputs": [],
      "payable": false,
      "stateMutability": "nonpayable",
      "type": "function"
    },
    {
      "constant": true,
      "inputs": [
        {
          "name": "",
          "type": "bytes32"
        }
      ],
      "name": "donors",
      "outputs": [
        {
          "name": "fundsRaised",
          "type": "uint256"
        },
        {
          "name": "exists",
          "type": "bool"
        }
      ],
      "payable": false,
      "stateMutability": "view",
      "type": "function"
    },
    {
      "constant": true,
      "inputs": [
        {
          "name": "index",
          "type": "uint256"
        }
      ],
      "name": "tokenByIndex",
      "outputs": [
        {
          "name": "",
          "type": "uint256"
        }
      ],
      "payable": false,
      "stateMutability": "view",
      "type": "function"
    },
    {
      "constant": true,
      "inputs": [
        {
          "name": "tokenId",
          "type": "uint256"
        }
      ],
      "name": "ownerOf",
      "outputs": [
        {
          "name": "",
          "type": "address"
        }
      ],
      "payable": false,
      "stateMutability": "view",
      "type": "function"
    },
    {
      "constant": true,
      "inputs": [
        {
          "name": "owner",
          "type": "address"
        }
      ],
      "name": "balanceOf",
      "outputs": [
        {
          "name": "",
          "type": "uint256"
        }
      ],
      "payable": false,
      "stateMutability": "view",
      "type": "function"
    },
    {
      "constant": false,
      "inputs": [],
      "name": "renounceOwnership",
      "outputs": [],
      "payable": false,
      "stateMutability": "nonpayable",
      "type": "function"
    },
    {
      "constant": true,
      "inputs": [
        {
          "name": "",
          "type": "bytes32"
        }
      ],
      "name": "buyers",
      "outputs": [
        {
          "name": "totalContributed",
          "type": "uint256"
        },
        {
          "name": "totalDonationsAllocated",
          "type": "uint256"
        },
        {
          "name": "exists",
          "type": "bool"
        },
        {
          "name": "buyerAddress",
          "type": "address"
        }
      ],
      "payable": false,
      "stateMutability": "view",
      "type": "function"
    },
    {
      "constant": true,
      "inputs": [],
      "name": "owner",
      "outputs": [
        {
          "name": "",
          "type": "address"
        }
      ],
      "payable": false,
      "stateMutability": "view",
      "type": "function"
    },
    {
      "constant": true,
      "inputs": [],
      "name": "isOwner",
      "outputs": [
        {
          "name": "",
          "type": "bool"
        }
      ],
      "payable": false,
      "stateMutability": "view",
      "type": "function"
    },
    {
      "constant": true,
      "inputs": [],
      "name": "symbol",
      "outputs": [
        {
          "name": "",
          "type": "string"
        }
      ],
      "payable": false,
      "stateMutability": "view",
      "type": "function"
    },
    {
      "constant": true,
      "inputs": [
        {
          "name": "",
          "type": "uint256"
        }
      ],
      "name": "chosenDonations",
      "outputs": [
        {
          "name": "charityName",
          "type": "string"
        },
        {
          "name": "amountDonated",
          "type": "uint256"
        },
        {
          "name": "buyerHash",
          "type": "bytes32"
        }
      ],
      "payable": false,
      "stateMutability": "view",
      "type": "function"
    },
    {
      "constant": false,
      "inputs": [
        {
          "name": "to",
          "type": "address"
        },
        {
          "name": "approved",
          "type": "bool"
        }
      ],
      "name": "setApprovalForAll",
      "outputs": [],
      "payable": false,
      "stateMutability": "nonpayable",
      "type": "function"
    },
    {
      "constant": true,
      "inputs": [
        {
          "name": "",
          "type": "uint256"
        }
      ],
      "name": "soldTokens",
      "outputs": [
        {
          "name": "buyerHash",
          "type": "bytes32"
        },
        {
          "name": "redemptionHash",
          "type": "bytes32"
        },
        {
          "name": "redeemed",
          "type": "bool"
        },
        {
          "name": "sold",
          "type": "bool"
        },
        {
          "name": "cost",
          "type": "uint256"
        }
      ],
      "payable": false,
      "stateMutability": "view",
      "type": "function"
    },
    {
      "constant": true,
      "inputs": [
        {
          "name": "",
          "type": "bytes32"
        }
      ],
      "name": "madeDonations",
      "outputs": [
        {
          "name": "charityName",
          "type": "string"
        },
        {
          "name": "amountDonated",
          "type": "uint256"
        },
        {
          "name": "donationProofHash",
          "type": "bytes32"
        },
        {
          "name": "donorAddress",
          "type": "address"
        },
        {
          "name": "donationProof",
          "type": "string"
        }
      ],
      "payable": false,
      "stateMutability": "view",
      "type": "function"
    },
    {
      "constant": false,
      "inputs": [
        {
          "name": "from",
          "type": "address"
        },
        {
          "name": "to",
          "type": "address"
        },
        {
          "name": "tokenId",
          "type": "uint256"
        },
        {
          "name": "_data",
          "type": "bytes"
        }
      ],
      "name": "safeTransferFrom",
      "outputs": [],
      "payable": false,
      "stateMutability": "nonpayable",
      "type": "function"
    },
    {
      "constant": true,
      "inputs": [],
      "name": "totalRaised",
      "outputs": [
        {
          "name": "",
          "type": "uint256"
        }
      ],
      "payable": false,
      "stateMutability": "view",
      "type": "function"
    },
    {
      "constant": true,
      "inputs": [
        {
          "name": "tokenId",
          "type": "uint256"
        }
      ],
      "name": "tokenURI",
      "outputs": [
        {
          "name": "",
          "type": "string"
        }
      ],
      "payable": false,
      "stateMutability": "view",
      "type": "function"
    },
    {
      "constant": true,
      "inputs": [],
      "name": "tokenIndex",
      "outputs": [
        {
          "name": "",
          "type": "uint256"
        }
      ],
      "payable": false,
      "stateMutability": "view",
      "type": "function"
    },
    {
      "constant": true,
      "inputs": [
        {
          "name": "owner",
          "type": "address"
        },
        {
          "name": "operator",
          "type": "address"
        }
      ],
      "name": "isApprovedForAll",
      "outputs": [
        {
          "name": "",
          "type": "bool"
        }
      ],
      "payable": false,
      "stateMutability": "view",
      "type": "function"
    },
    {
      "constant": false,
      "inputs": [
        {
          "name": "newOwner",
          "type": "address"
        }
      ],
      "name": "transferOwnership",
      "outputs": [],
      "payable": false,
      "stateMutability": "nonpayable",
      "type": "function"
    },
    {
      "inputs": [],
      "payable": false,
      "stateMutability": "nonpayable",
      "type": "constructor"
    },
    {
      "payable": true,
      "stateMutability": "payable",
      "type": "fallback"
    },
    {
      "anonymous": false,
      "inputs": [
        {
          "indexed": false,
          "name": "_donorHash",
          "type": "bytes32"
        },
        {
          "indexed": false,
          "name": "_totalRaised",
          "type": "uint256"
        },
        {
          "indexed": false,
          "name": "_exists",
          "type": "bool"
        }
      ],
      "name": "DonationMadeToLuxarity",
      "type": "event"
    },
    {
      "anonymous": false,
      "inputs": [
        {
          "indexed": false,
          "name": "_tokenId",
          "type": "uint256"
        },
        {
          "indexed": false,
          "name": "_tokenMinter",
          "type": "address"
        },
        {
          "indexed": false,
          "name": "_tokenMetaData",
          "type": "string"
        }
      ],
      "name": "MintedToken",
      "type": "event"
    },
    {
      "anonymous": false,
      "inputs": [
        {
          "indexed": false,
          "name": "_tokenId",
          "type": "uint256"
        },
        {
          "indexed": false,
          "name": "_buyerId",
          "type": "bytes32"
        },
        {
          "indexed": false,
          "name": "_cost",
          "type": "uint256"
        }
      ],
      "name": "SoldToken",
      "type": "event"
    },
    {
      "anonymous": false,
      "inputs": [
        {
          "indexed": false,
          "name": "_charityName",
          "type": "string"
        },
        {
          "indexed": false,
          "name": "_buyerId",
          "type": "bytes32"
        },
        {
          "indexed": false,
          "name": "_amountToBeDonated",
          "type": "uint256"
        }
      ],
      "name": "DonationChosen",
      "type": "event"
    },
    {
      "anonymous": false,
      "inputs": [
        {
          "indexed": false,
          "name": "_amountDonated",
          "type": "uint256"
        },
        {
          "indexed": false,
          "name": "_charityName",
          "type": "string"
        },
        {
          "indexed": false,
          "name": "_proofHash",
          "type": "bytes32"
        },
        {
          "indexed": false,
          "name": "_donationProof",
          "type": "string"
        },
        {
          "indexed": false,
          "name": "_donationMadeHash",
          "type": "bytes32"
        }
      ],
      "name": "DonationMadeToCharity",
      "type": "event"
    },
    {
      "anonymous": false,
      "inputs": [
        {
          "indexed": false,
          "name": "_tokenId",
          "type": "uint256"
        },
        {
          "indexed": false,
          "name": "_buyerId",
          "type": "bytes32"
        },
        {
          "indexed": false,
          "name": "_buyerAddress",
          "type": "address"
        }
      ],
      "name": "RedeemedToken",
      "type": "event"
    },
    {
      "anonymous": false,
      "inputs": [
        {
          "indexed": true,
          "name": "previousOwner",
          "type": "address"
        }
      ],
      "name": "OwnershipRenounced",
      "type": "event"
    },
    {
      "anonymous": false,
      "inputs": [
        {
          "indexed": true,
          "name": "previousOwner",
          "type": "address"
        },
        {
          "indexed": true,
          "name": "newOwner",
          "type": "address"
        }
      ],
      "name": "OwnershipTransferred",
      "type": "event"
    },
    {
      "anonymous": false,
      "inputs": [
        {
          "indexed": true,
          "name": "from",
          "type": "address"
        },
        {
          "indexed": true,
          "name": "to",
          "type": "address"
        },
        {
          "indexed": true,
          "name": "tokenId",
          "type": "uint256"
        }
      ],
      "name": "Transfer",
      "type": "event"
    },
    {
      "anonymous": false,
      "inputs": [
        {
          "indexed": true,
          "name": "owner",
          "type": "address"
        },
        {
          "indexed": true,
          "name": "approved",
          "type": "address"
        },
        {
          "indexed": true,
          "name": "tokenId",
          "type": "uint256"
        }
      ],
      "name": "Approval",
      "type": "event"
    },
    {
      "anonymous": false,
      "inputs": [
        {
          "indexed": true,
          "name": "owner",
          "type": "address"
        },
        {
          "indexed": true,
          "name": "operator",
          "type": "address"
        },
        {
          "indexed": false,
          "name": "approved",
          "type": "bool"
        }
      ],
      "name": "ApprovalForAll",
      "type": "event"
    },
    {
      "constant": false,
      "inputs": [
        {
          "name": "_tokenURI",
          "type": "string"
        },
        {
          "name": "_brand",
          "type": "string"
        },
        {
          "name": "_size",
          "type": "string"
        },
        {
          "name": "_gender",
          "type": "string"
        },
        {
          "name": "_style",
          "type": "string"
        },
        {
          "name": "_donorHash",
          "type": "bytes32"
        }
      ],
      "name": "mintItem",
      "outputs": [
        {
          "name": "",
          "type": "uint256"
        }
      ],
      "payable": false,
      "stateMutability": "nonpayable",
      "type": "function"
    },
    {
      "constant": false,
      "inputs": [
        {
          "name": "_buyerID",
          "type": "bytes32"
        },
        {
          "name": "_itemCost",
          "type": "uint256"
        },
        {
          "name": "_redemptionHash",
          "type": "bytes32"
        },
        {
          "name": "_tokenId",
          "type": "uint256"
        }
      ],
      "name": "soldItem",
      "outputs": [
        {
          "name": "",
          "type": "bool"
        }
      ],
      "payable": false,
      "stateMutability": "nonpayable",
      "type": "function"
    },
    {
      "constant": false,
      "inputs": [
        {
          "name": "_buyerID",
          "type": "bytes32"
        },
        {
          "name": "_charityName",
          "type": "string"
        },
        {
          "name": "_chosenDonateAmount",
          "type": "uint256"
        }
      ],
      "name": "chooseDonation",
      "outputs": [
        {
          "name": "",
          "type": "bool"
        }
      ],
      "payable": false,
      "stateMutability": "nonpayable",
      "type": "function"
    },
    {
      "constant": false,
      "inputs": [
        {
          "name": "_proofHash",
          "type": "bytes32"
        },
        {
          "name": "_proof",
          "type": "string"
        },
        {
          "name": "_madeDonationAmount",
          "type": "uint256"
        },
        {
          "name": "_charityName",
          "type": "string"
        }
      ],
      "name": "makeDonation",
      "outputs": [
        {
          "name": "",
          "type": "bool"
        }
      ],
      "payable": false,
      "stateMutability": "nonpayable",
      "type": "function"
    },
    {
      "constant": false,
      "inputs": [
        {
          "name": "_buyerID",
          "type": "bytes32"
        },
        {
          "name": "_redemptionHash",
          "type": "bytes32"
        },
        {
          "name": "_buyerAddress",
          "type": "address"
        },
        {
          "name": "_tokenId",
          "type": "uint256"
        }
      ],
      "name": "redeemItem",
      "outputs": [
        {
          "name": "",
          "type": "bool"
        }
      ],
      "payable": false,
      "stateMutability": "nonpayable",
      "type": "function"
    },
    {
      "constant": false,
      "inputs": [
        {
          "name": "_buyerID",
          "type": "bytes32"
        },
        {
          "name": "_redemptionHash",
          "type": "bytes32"
        },
        {
          "name": "_buyerAddress",
          "type": "address"
        },
        {
          "name": "_tokenId",
          "type": "uint256"
        }
      ],
      "name": "safeRedeemItem",
      "outputs": [
        {
          "name": "",
          "type": "bool"
        }
      ],
      "payable": false,
      "stateMutability": "nonpayable",
      "type": "function"
    },
    {
      "constant": true,
      "inputs": [
        {
          "name": "_buyerID",
          "type": "bytes32"
        }
      ],
      "name": "getBuyerAmount",
      "outputs": [
        {
          "name": "total",
          "type": "uint256"
        }
      ],
      "payable": false,
      "stateMutability": "view",
      "type": "function"
    },
    {
      "constant": true,
      "inputs": [],
      "name": "getTotalRaised",
      "outputs": [
        {
          "name": "",
          "type": "uint256"
        }
      ],
      "payable": false,
      "stateMutability": "view",
      "type": "function"
    },
    {
      "constant": true,
      "inputs": [],
      "name": "getTotalAllocatedDonations",
      "outputs": [
        {
          "name": "",
          "type": "uint256"
        }
      ],
      "payable": false,
      "stateMutability": "view",
      "type": "function"
    },
    {
      "constant": true,
      "inputs": [],
      "name": "getTotalMadeDonations",
      "outputs": [
        {
          "name": "",
          "type": "uint256"
        }
      ],
      "payable": false,
      "stateMutability": "view",
      "type": "function"
    },
    {
      "constant": true,
      "inputs": [
        {
          "name": "_tokenId",
          "type": "uint256"
        }
      ],
      "name": "getRedemption",
      "outputs": [
        {
          "name": "",
          "type": "bool"
        }
      ],
      "payable": false,
      "stateMutability": "view",
      "type": "function"
    },
    {
      "constant": true,
      "inputs": [
        {
          "name": "_tokenId",
          "type": "uint256"
        }
      ],
      "name": "getTokenSold",
      "outputs": [
        {
          "name": "",
          "type": "bool"
        }
      ],
      "payable": false,
      "stateMutability": "view",
      "type": "function"
    },
    {
      "constant": true,
      "inputs": [
        {
          "name": "_tokenId",
          "type": "uint256"
        }
      ],
      "name": "getTokenOwner",
      "outputs": [
        {
          "name": "",
          "type": "address"
        }
      ],
      "payable": false,
      "stateMutability": "view",
      "type": "function"
    },
    {
      "constant": true,
      "inputs": [
        {
          "name": "_donorId",
          "type": "bytes32"
        }
      ],
      "name": "getDonationAmount",
      "outputs": [
        {
          "name": "",
          "type": "uint256"
        }
      ],
      "payable": false,
      "stateMutability": "view",
      "type": "function"
    },
    {
      "constant": false,
      "inputs": [
        {
          "name": "newOwner",
          "type": "address"
        }
      ],
      "name": "transferContract",
      "outputs": [],
      "payable": false,
      "stateMutability": "nonpayable",
      "type": "function"
    }
  ],
  "bytecode": "0x60806040523480156200001157600080fd5b50604080518082018252601481527f4c75786172697479205374796c6520546f6b656e0000000000000000000000006020808301919091528251808401909352600383527f4c5558000000000000000000000000000000000000000000000000000000000090830152908181620000b17f01ffc9a700000000000000000000000000000000000000000000000000000000640100000000620001b3810204565b620000e57f80ac58cd00000000000000000000000000000000000000000000000000000000640100000000620001b3810204565b620001197f780e9d6300000000000000000000000000000000000000000000000000000000640100000000620001b3810204565b81516200012e90600990602085019062000220565b5080516200014490600a90602084019062000220565b50620001797f5b5e139f00000000000000000000000000000000000000000000000000000000640100000000620001b3810204565b5050600c8054600160a060020a0319163317905550506000600d819055600e819055600f81905560108190556011819055601255620002c5565b7fffffffff000000000000000000000000000000000000000000000000000000008082161415620001e357600080fd5b7fffffffff00000000000000000000000000000000000000000000000000000000166000908152602081905260409020805460ff19166001179055565b828054600181600116156101000203166002900490600052602060002090601f016020900481019282601f106200026357805160ff191683800117855562000293565b8280016001018555821562000293579182015b828111156200029357825182559160200191906001019062000276565b50620002a1929150620002a5565b5090565b620002c291905b80821115620002a15760008155600101620002ac565b90565b612ab980620002d56000396000f30060806040526004361061022e5763ffffffff7c0100000000000000000000000000000000000000000000000000000000600035041662b37044811461023057806301ffc9a71461025757806306fdde03146102a2578063081812fc1461032c578063095ea7b31461036057806318160ddd14610384578063190c087d146103995780631953cc21146103f95780631a168b58146104115780631f0bf9411461042657806323b872dd1461043b57806328e5d54f146104655780632f745c591461047a57806342842e0e1461049e57806344d6ff4f146104c857806347635dac146104f95780634f6ccce71461051a5780636352211e1461053257806364457aad1461054a57806370a0823114610562578063715018a6146105835780637e233761146105985780637ecbaf80146105c257806380220d281461060957806382aa1622146106215780638da5cb5b146106365780638f32d59b1461064b57806395d89b41146106605780639a22836e146106755780639f55029314610713578063a22cb46514610728578063a43e4acc1461074e578063a5cd761f146107f0578063ad9ab85714610808578063b29580621461084d578063b88d4fde14610963578063c5c4744c146109d2578063c87b56dd146109e7578063d55f9273146109ff578063dee63cf414610a14578063e06da50e14610a29578063e36777af14610a53578063e3bdc65a14610a74578063e985e9c514610bc7578063f2fde38b14610bee578063f68ac9ef14610c0f575b005b34801561023c57600080fd5b50610245610c27565b60408051918252519081900360200190f35b34801561026357600080fd5b5061028e7bffffffffffffffffffffffffffffffffffffffffffffffffffffffff1960043516610c2d565b604080519115158252519081900360200190f35b3480156102ae57600080fd5b506102b7610c65565b6040805160208082528351818301528351919283929083019185019080838360005b838110156102f15781810151838201526020016102d9565b50505050905090810190601f16801561031e5780820380516001836020036101000a031916815260200191505b509250505060405180910390f35b34801561033857600080fd5b50610344600435610cfc565b60408051600160a060020a039092168252519081900360200190f35b34801561036c57600080fd5b5061022e600160a060020a0360043516602435610d2e565b34801561039057600080fd5b50610245610dd7565b3480156103a557600080fd5b5060408051602060046024803582810135601f810185900485028601850190965285855261028e9583359536956044949193909101919081908401838280828437509497505093359450610ddd9350505050565b34801561040557600080fd5b5061028e600435610f45565b34801561041d57600080fd5b50610245610f5d565b34801561043257600080fd5b50610245610f63565b34801561044757600080fd5b5061022e600160a060020a0360043581169060243516604435610f69565b34801561047157600080fd5b50610245610ff7565b34801561048657600080fd5b50610245600160a060020a0360043516602435610ffd565b3480156104aa57600080fd5b5061022e600160a060020a036004358116906024351660443561104a565b3480156104d457600080fd5b506104e060043561106b565b6040805192835290151560208301528051918290030190f35b34801561050557600080fd5b5061022e600160a060020a0360043516611087565b34801561052657600080fd5b506102456004356110a6565b34801561053e57600080fd5b506103446004356110db565b34801561055657600080fd5b5061028e600435611105565b34801561056e57600080fd5b50610245600160a060020a0360043516611122565b34801561058f57600080fd5b5061022e611155565b3480156105a457600080fd5b5061028e600435602435600160a060020a03604435166064356111b2565b3480156105ce57600080fd5b506105da6004356112c6565b60408051948552602085019390935290151583830152600160a060020a03166060830152519081900360800190f35b34801561061557600080fd5b506102456004356112fa565b34801561062d57600080fd5b50610245611330565b34801561064257600080fd5b50610344611336565b34801561065757600080fd5b5061028e611345565b34801561066c57600080fd5b506102b7611356565b34801561068157600080fd5b5061068d6004356113b7565b6040805160208082018590529181018390526060808252855190820152845190918291608083019187019080838360005b838110156106d65781810151838201526020016106be565b50505050905090810190601f1680156107035780820380516001836020036101000a031916815260200191505b5094505050505060405180910390f35b34801561071f57600080fd5b50610245611464565b34801561073457600080fd5b5061022e600160a060020a0360043516602435151561146a565b34801561075a57600080fd5b5060408051602060046024803582810135601f810185900485028601850190965285855261028e95833595369560449491939091019190819084018382808284375050604080516020601f818a01358b0180359182018390048302840183018552818452989b8a359b909a9099940197509195509182019350915081908401838280828437509497506114ee9650505050505050565b3480156107fc57600080fd5b50610344600435611846565b34801561081457600080fd5b50610820600435611859565b60408051958652602086019490945291151584840152151560608401526080830152519081900360a00190f35b34801561085957600080fd5b5061086560043561188d565b604080516020808201879052918101859052600160a060020a038416606082015260a0808252875190820152865190918291608083019160c0840191908a019080838360005b838110156108c35781810151838201526020016108ab565b50505050905090810190601f1680156108f05780820380516001836020036101000a031916815260200191505b50838103825284518152845160209182019186019080838360005b8381101561092357818101518382015260200161090b565b50505050905090810190601f1680156109505780820380516001836020036101000a031916815260200191505b5097505050505050505060405180910390f35b34801561096f57600080fd5b50604080516020601f60643560048181013592830184900484028501840190955281845261022e94600160a060020a0381358116956024803590921695604435953695608494019181908401838280828437509497506119de9650505050505050565b3480156109de57600080fd5b50610245611a06565b3480156109f357600080fd5b506102b7600435611a0c565b348015610a0b57600080fd5b50610245611ac1565b348015610a2057600080fd5b50610245611ac7565b348015610a3557600080fd5b5061028e600435602435600160a060020a0360443516606435611acd565b348015610a5f57600080fd5b5061028e600435602435604435606435611be4565b348015610a8057600080fd5b506040805160206004803580820135601f810184900484028501840190955284845261024594369492936024939284019190819084018382808284375050604080516020601f89358b018035918201839004830284018301909452808352979a99988101979196509182019450925082915084018382808284375050604080516020601f89358b018035918201839004830284018301909452808352979a99988101979196509182019450925082915084018382808284375050604080516020601f89358b018035918201839004830284018301909452808352979a99988101979196509182019450925082915084018382808284375050604080516020601f89358b018035918201839004830284018301909452808352979a9998810197919650918201945092508291508401838280828437509497505093359450611dd09350505050565b348015610bd357600080fd5b5061028e600160a060020a0360043581169060243516612324565b348015610bfa57600080fd5b5061022e600160a060020a0360043516612352565b348015610c1b57600080fd5b5061024560043561236e565b600f5481565b7bffffffffffffffffffffffffffffffffffffffffffffffffffffffff19811660009081526020819052604090205460ff165b919050565b60098054604080516020601f6002600019610100600188161502019095169490940493840181900481028201810190925282815260609390929091830182828015610cf15780601f10610cc657610100808354040283529160200191610cf1565b820191906000526020600020905b815481529060010190602001808311610cd457829003601f168201915b505050505090505b90565b6000610d07826123a5565b1515610d1257600080fd5b50600090815260026020526040902054600160a060020a031690565b6000610d39826110db565b9050600160a060020a038381169082161415610d5457600080fd5b33600160a060020a0382161480610d705750610d708133612324565b1515610d7b57600080fd5b6000828152600260205260408082208054600160a060020a031916600160a060020a0387811691821790925591518593918516917f8c5be1e5ebec7d5bd14f71427d1e84f3dd0314c0f7b2291e5b200ac8c7c3b92591a4505050565b60075490565b6000838152601760205260408120600201548190859060ff161515600114610e0457600080fd5b600086815260176020526040902060018101549054039150838211610f375760118054600101908190556040805160608101825287815260208082018890528183018a905260009384526014815291909220825180519192610e6b928492909101906129d5565b5060208281015160018301556040928301516002909201919091558151808201899052918201869052606080835287519083015286517fe1e2f04378c01049d9d077035633dcf281eb34649d091dd1d7d1f0c3b4686fa09288928a928992918291608083019187019080838360005b83811015610ef2578181015183820152602001610eda565b50505050905090810190601f168015610f1f5780820380516001836020036101000a031916815260200191505b5094505050505060405180910390a160019250610f3c565b600092505b50509392505050565b60009081526016602052604090206002015460ff1690565b60115481565b60125481565b610f7333826123c2565b1515610f7e57600080fd5b600160a060020a0382161515610f9357600080fd5b610f9d8382612419565b610fa7838261247d565b610fb18282612584565b8082600160a060020a031684600160a060020a03167fddf252ad1be2c89b69c2b068fc378daa952ba7f163c4a11628f55a4df523b3ef60405160405180910390a4505050565b60105481565b600061100883611122565b821061101357600080fd5b600160a060020a038316600090815260056020526040902080548390811061103757fe5b9060005260206000200154905092915050565b61106683838360206040519081016040528060008152506119de565b505050565b6018602052600090815260409020805460019091015460ff1682565b61108f611345565b151561109a57600080fd5b6110a381612352565b50565b60006110b0610dd7565b82106110bb57600080fd5b60078054839081106110c957fe5b90600052602060002001549050919050565b600081815260016020526040812054600160a060020a03168015156110ff57600080fd5b92915050565b600090815260166020526040902060020154610100900460ff1690565b6000600160a060020a038216151561113957600080fd5b50600160a060020a031660009081526003602052604090205490565b61115d611345565b151561116857600080fd5b600c54604051600160a060020a03909116907ff8df31144d9c2f0f6b59d69b8b98abd5459d07f2742c4df920b25aae33c6482090600090a2600c8054600160a060020a0319169055565b600084815260176020526040812060020154859060ff1615156001146111d757600080fd5b600160a060020a03841615156111ec57600080fd5b600083815260166020526040902054861461120657600080fd5b600083815260166020526040902060010154851461122357600080fd5b60008381526013602090815260408083206007018054600160a060020a031916600160a060020a03891617905560169091529020600201805460ff19166001179055611270338585610f69565b6040805184815260208101889052600160a060020a0386168183015290517f228808fc7f1cf2105ae7d045c73ecb559cd36038b92afc74b2d6c12adc0598729181900360600190a1600191505b50949350505050565b60176020526000908152604090208054600182015460029092015490919060ff8116906101009004600160a060020a031684565b600081815260186020526040812060019081015460ff1615151461131d57600080fd5b5060009081526018602052604090205490565b60115490565b600c54600160a060020a031690565b600c54600160a060020a0316331490565b600a8054604080516020601f6002600019610100600188161502019095169490940493840181900481028201810190925282815260609390929091830182828015610cf15780601f10610cc657610100808354040283529160200191610cf1565b60146020908152600091825260409182902080548351601f6002600019610100600186161502019093169290920491820184900484028101840190945280845290929183919083018282801561144e5780601f106114235761010080835404028352916020019161144e565b820191906000526020600020905b81548152906001019060200180831161143157829003601f168201915b5050505050908060010154908060020154905083565b600e5490565b600160a060020a03821633141561148057600080fd5b336000818152600460209081526040808320600160a060020a03871680855290835292819020805460ff1916861515908117909155815190815290519293927f17307eab39ab6107e8899845ad3d59bd9653f200f220920489ca2b5937696c31929181900390910190a35050565b6000806114f9611345565b151561150457600080fd5b82848733886040516020018086805190602001908083835b6020831061153b5780518252601f19909201916020918201910161151c565b51815160209384036101000a60001901801990921691161790529201878152808301879052600160a060020a0386166c010000000000000000000000000260408201528451605490910192850191508083835b602083106115ad5780518252601f19909201916020918201910161158e565b6001836020036101000a038019825116818451168082178552505050505050905001955050505050506040516020818303038152906040526040518082805190602001908083835b602083106116145780518252601f1990920191602091820191016115f5565b51815160209384036101000a60001901801990921691161790526040805192909401829003909120600081815260159092529290206003015491945050600160a060020a0316159150611668905057600080fd5b601280546001019055600f8054850190556040805160a0810182528481526020808201879052818301899052336060830152608082018890526000848152601582529290922081518051929391926116c392849201906129d5565b506020828101516001830155604083015160028301556060830151600383018054600160a060020a031916600160a060020a039092169190911790556080830151805161171692600485019201906129d5565b5050604080518681529081018890526080810183905260a0602080830182815287519284019290925286517fdab98e61abe5b56925e931d8cbb34c52f9193512b3f553e12cc3259a7698ff559450889388938c938c9389939291606084019160c085019189019080838360005b8381101561179b578181015183820152602001611783565b50505050905090810190601f1680156117c85780820380516001836020036101000a031916815260200191505b50838103825285518152855160209182019187019080838360005b838110156117fb5781810151838201526020016117e3565b50505050905090810190601f1680156118285780820380516001836020036101000a031916815260200191505b5097505050505050505060405180910390a150600195945050505050565b600080611852836110db565b9392505050565b60166020526000908152604090208054600182015460028301546003909301549192909160ff808316926101009004169085565b60156020908152600091825260409182902080548351601f600260001961010060018616150201909316929092049182018490048402810184019094528084529092918391908301828280156119245780601f106118f957610100808354040283529160200191611924565b820191906000526020600020905b81548152906001019060200180831161190757829003601f168201915b505050506001838101546002808601546003870154600488018054604080516020601f6000199a851615610100029a909a0190931696909604978801829004820286018201905286855297989497929650600160a060020a039091169490918301828280156119d45780601f106119a9576101008083540402835291602001916119d4565b820191906000526020600020905b8154815290600101906020018083116119b757829003601f168201915b5050505050905085565b6119e9848484610f69565b6119f5848484846125cd565b1515611a0057600080fd5b50505050565b600e5481565b6060611a17826123a5565b1515611a2257600080fd5b6000828152600b602090815260409182902080548351601f600260001961010060018616150201909316929092049182018490048402810184019094528084529091830182828015611ab55780601f10611a8a57610100808354040283529160200191611ab5565b820191906000526020600020905b815481529060010190602001808311611a9857829003601f168201915b50505050509050919050565b600d5481565b60125490565b600084815260176020526040812060020154859060ff161515600114611af257600080fd5b600160a060020a0384161515611b0757600080fd5b6000838152601660205260409020548614611b2157600080fd5b6000838152601660205260409020600101548514611b3e57600080fd5b60008381526013602052604090206007018054600160a060020a031916600160a060020a038616179055611b7333858561104a565b600083815260166020908152604091829020600201805460ff191660011790558151858152908101889052600160a060020a0386168183015290517f228808fc7f1cf2105ae7d045c73ecb559cd36038b92afc74b2d6c12adc0598729181900360600190a150600195945050505050565b6000611bee611345565b1515611bf957600080fd5b60008581526017602052604090206002015460ff161515611c9d5760408051608081018252858152600060208083018281526001848601818152606086018581528c86526017909452959093209351845551918301919091559151600290910180549251600160a060020a03166101000274ffffffffffffffffffffffffffffffffffffffff001992151560ff199094169390931791909116919091179055611cb2565b60008581526017602052604090208054850190555b600082815260166020526040902060020154610100900460ff161515611dc4576010805460019081019091556040805160a081018252878152602080820187815260008385018181526060808601888152608087018d81528b85526016808852898620985189559551998801999099559151600287018054935115156101000261ff001992151560ff1990951694909417919091169290921790915595516003909401938455600e80548b019055601383528481206008015481526018835284812080548b0190558790528152905482518681529182018990528183015290517efbb329a2a0586f66ec8c109ac92ce4baff4cd3a7ff1c7b875162fc1e852613929181900390910190a1506001611dc8565b5060005b949350505050565b600080611ddb611345565b1515611de657600080fd5b60008381526018602052604090206001015460ff161515611e7957604080518082018252600080825260016020808401828152888452601882528584209451855551938201805460ff1916941515949094179093558351878152928301919091528183015290517fcd48662abd2b2ca98107d052c612ef62ef0f47578ddbdf868d221cebe91f2163916060908290030190a15b600d805460010190819055611e8d906123a5565b1515600114611e9b57600080fd5b868685878b3333896040516020018089805190602001908083835b60208310611ed55780518252601f199092019160209182019101611eb6565b51815160209384036101000a60001901801990921691161790528b5191909301928b0191508083835b60208310611f1d5780518252601f199092019160209182019101611efe565b51815160209384036101000a60001901801990921691161790528a5191909301928a0191508083835b60208310611f655780518252601f199092019160209182019101611f46565b51815160209384036101000a600019018019909216911617905289519190930192890191508083835b60208310611fad5780518252601f199092019160209182019101611f8e565b51815160209384036101000a600019018019909216911617905288519190930192880191508083835b60208310611ff55780518252601f199092019160209182019101611fd6565b6001836020036101000a03801982511681845116808217855250505050505090500184600160a060020a0316600160a060020a03166c0100000000000000000000000002815260140183600160a060020a0316600160a060020a03166c010000000000000000000000000281526014018260001916600019168152602001985050505050505050506040516020818303038152906040526040518082805190602001908083835b602083106120bb5780518252601f19909201916020918201910161209c565b6001836020036101000a03801982511681845116808217855250505050505090500191505060405180910390209050610120604051908101604052808260001916815260200188815260200187815260200185815260200186815260200189815260200133600160a060020a0316815260200133600160a060020a03168152602001846000191681525060136000600d5481526020019081526020016000206000820151816000019060001916905560208201518160010190805190602001906121869291906129d5565b50604082015180516121a29160028401916020909101906129d5565b50606082015180516121be9160038401916020909101906129d5565b50608082015180516121da9160048401916020909101906129d5565b5060a082015180516121f69160058401916020909101906129d5565b5060c0820151600682018054600160a060020a03928316600160a060020a03199182161790915560e084015160078401805491909316911617905561010090910151600890910155600d5461224c90339061274a565b612258600d5489612799565b7f5bf2d4b28d6c1c4b05ec28293620e14bddc41a4c0cfd5314abfd693d2dfede2f600d54338a6040518084815260200183600160a060020a0316600160a060020a0316815260200180602001828103825283818151815260200191508051906020019080838360005b838110156122d95781810151838201526020016122c1565b50505050905090810190601f1680156123065780820380516001836020036101000a031916815260200191505b5094505050505060405180910390a15050600d549695505050505050565b600160a060020a03918216600090815260046020908152604080832093909416825291909152205460ff1690565b61235a611345565b151561236557600080fd5b6110a3816127cc565b60008181526017602052604081206002015460ff161561239d5750600081815260176020526040902054610c60565b506000919050565b600090815260016020526040902054600160a060020a0316151590565b6000806123ce836110db565b905080600160a060020a031684600160a060020a03161480612409575083600160a060020a03166123fe84610cfc565b600160a060020a0316145b80611dc85750611dc88185612324565b81600160a060020a031661242c826110db565b600160a060020a03161461243f57600080fd5b600081815260026020526040902054600160a060020a0316156124795760008181526002602052604090208054600160a060020a03191690555b5050565b600080600061248c858561283d565b600084815260066020908152604080832054600160a060020a03891684526005909252909120549093506124c790600163ffffffff6128c616565b600160a060020a0386166000908152600560205260409020805491935090839081106124ef57fe5b90600052602060002001549050806005600087600160a060020a0316600160a060020a031681526020019081526020016000208481548110151561252f57fe5b6000918252602080832090910192909255600160a060020a0387168152600590915260409020805490612566906000198301612a53565b50600093845260066020526040808520859055908452909220555050565b600061259083836128dd565b50600160a060020a039091166000908152600560209081526040808320805460018101825590845282842081018590559383526006909152902055565b6000806125e285600160a060020a0316612960565b15156125f157600191506112bd565b6040517f150b7a020000000000000000000000000000000000000000000000000000000081523360048201818152600160a060020a03898116602485015260448401889052608060648501908152875160848601528751918a169463150b7a0294938c938b938b93909160a490910190602085019080838360005b8381101561268457818101518382015260200161266c565b50505050905090810190601f1680156126b15780820380516001836020036101000a031916815260200191505b5095505050505050602060405180830381600087803b1580156126d357600080fd5b505af11580156126e7573d6000803e3d6000fd5b505050506040513d60208110156126fd57600080fd5b50517bffffffffffffffffffffffffffffffffffffffffffffffffffffffff19167f150b7a0200000000000000000000000000000000000000000000000000000000149695505050505050565b6127548282612968565b600780546000838152600860205260408120829055600182018355919091527fa66cc928b5edb82af9bd49922954155ab7b0942694bea4ce44661d9a8736c688015550565b6127a2826123a5565b15156127ad57600080fd5b6000828152600b602090815260409091208251611066928401906129d5565b600160a060020a03811615156127e157600080fd5b600c54604051600160a060020a038084169216907f8be0079c531659141344cd1fd0a4f28419497f9722a3daafe3b4186f6b6457e090600090a3600c8054600160a060020a031916600160a060020a0392909216919091179055565b81600160a060020a0316612850826110db565b600160a060020a03161461286357600080fd5b600160a060020a03821660009081526003602052604090205461288d90600163ffffffff6128c616565b600160a060020a039092166000908152600360209081526040808320949094559181526001909152208054600160a060020a0319169055565b600080838311156128d657600080fd5b5050900390565b600081815260016020526040902054600160a060020a0316156128ff57600080fd5b60008181526001602081815260408084208054600160a060020a031916600160a060020a0388169081179091558452600390915290912054612940916129c3565b600160a060020a0390921660009081526003602052604090209190915550565b6000903b1190565b600160a060020a038216151561297d57600080fd5b6129878282612584565b6040518190600160a060020a038416906000907fddf252ad1be2c89b69c2b068fc378daa952ba7f163c4a11628f55a4df523b3ef908290a45050565b60008282018381101561185257600080fd5b828054600181600116156101000203166002900490600052602060002090601f016020900481019282601f10612a1657805160ff1916838001178555612a43565b82800160010185558215612a43579182015b82811115612a43578251825591602001919060010190612a28565b50612a4f929150612a73565b5090565b815481835581811115611066576000838152602090206110669181019083015b610cf991905b80821115612a4f5760008155600101612a795600a165627a7a723058205931a311e5836c342840d217c8ffff5dfdc123bbfecda05b68ceba2798f6bd100029",
  "source": "pragma solidity ^0.4.24;\n\nimport '../openzeppelin-solidity-master/contracts/token/ERC721/ERC721Full.sol';\nimport \"../openzeppelin-solidity-master/contracts/ownership/Ownable.sol\";\n\ncontract LuxTokens is ERC721Full, Ownable {\n\n  //state variables\n\n    //tokenid index\n    uint256 public tokenIndex;\n\n    //total raised in sales uint256 USD\n    uint256 public totalRaised;\n\n    //total verifiably donated to charities\n    uint256 public totalDonated;\n\n    //total items sold\n    uint256 public totalItemsSold;\n\n    //total number of chosen donations\n    uint256 public totalChosenDonations;\n\n    //total number of made donations\n    uint256 public totalMadeDonations;\n\n    //token mapping\n    mapping (uint256 => LuxToken) luxTokens;\n\n    //token struct\n    struct LuxToken {\n      bytes32 tokenHash;\n      string brand;\n      string size;\n      string style;\n      string gender;\n      string tokenURI;\n      address generation;\n      address owner;\n      bytes32 donorHash;\n    }\n\n    //list of donation choices made by buyer (attestation on chain that buyer\n    //chose a particular charity to give to)\n    mapping (uint256 => ChosenDonation) public chosenDonations;\n    struct ChosenDonation {\n      string charityName; //name of charity buyer has chosen to give to\n      uint256 amountDonated; //amount buyer would like to set aside from his purchases to charity\n      bytes32 buyerHash; //hash of donor off-chain identity\n    }\n\n    //MadeDonations is a list of donations actually made\n    //by luxarity after the resale of donated cloething, this exists to keep luxarity publically\n    //accountable\n    //identifier is keccak256(charityName, amountDonated, donationProofHash, donorAddress, donationProof)\n    mapping (bytes32 => MadeDonation) public madeDonations;\n    struct MadeDonation {\n      string charityName; //name of charity luxarity sent proceeds to\n      uint256 amountDonated; //amount donated via grant to charity\n      bytes32 donationProofHash; //SHA256 hash of proof of donation (in case it is tampered with)\n      address donorAddress; //address of owner of contract (luxarity)\n      string donationProof; //link to donation receipt\n    }\n\n    //soldTokens mapping keeping track of which tokens are sold to which buyer,\n    //this is somewhat redundant for the sake of associating a buyer's off chain identifier\n    //with their actual address (when they get one), it also tracks which tokens have been\n    //properly redeemed when bought (another layer on top of _tokenApprovals per say)\n    //index needs to be unique so it may be possible to do SHA256(tokenId + soldId + user ID)\n    mapping (uint256 => SaleDetails) public soldTokens;\n    struct SaleDetails {\n      bytes32 buyerHash; //identifier hash of off chain identifier of buyer\n      bytes32 redemptionHash; //SHA256 of secret value used by buyer to redeem their token\n      bool redeemed; //redemption status of token\n      bool sold;  //always true\n      uint256 cost; //cost of token in sale (USD)\n    }\n\n    //buyers mapping with buyer struct bytes32 => buyer, buyer struct {bytes32, totalBought, exists, owneraddress, totalDonated}, totalBought increments after everytime the buyer buys something and sold function is called, we check for exists and if not true we create a new buyer and add the amount they bought and increment on top of that amount in the future\n    //identifier hash of off chain identifier of buyer\n    mapping (bytes32 => Buyer) public buyers;\n    struct Buyer {\n      uint256 totalContributed; //total amount the buyer has bought in USD\n      uint256 totalDonationsAllocated; //amount of donation capital allocated\n      bool exists; //always true\n      address buyerAddress; //address of buyer (if token has been redeemed)\n    }\n\n    //tracking donor contributions, identifier is SHA256(unique donor off chain identifier)\n    mapping (bytes32 => Donor) public donors;\n    struct Donor {\n      uint256 fundsRaised; //funds raised from donated items\n      bool exists; //always true\n    }\n\n  //constructor for NFT token, name = Luxarity, symbol = LUX\n  constructor() ERC721Full('Luxarity Style Token', 'LUX') public {\n    //tokenid index\n    tokenIndex = 0;\n    //total capital raised uint256 USD\n    totalRaised = 0;\n    //total donated by luxarity (USD)\n    totalDonated = 0;\n    //total items sold\n    totalItemsSold = 0;\n    //total number of chosen donations\n    totalChosenDonations = 0;\n    //total number of made donations\n    totalMadeDonations = 0;\n  }\n\n  //events\n    //event when NFT is minter after donation\n    event DonationMadeToLuxarity (bytes32 _donorHash, uint256 _totalRaised, bool _exists);\n    event MintedToken (uint256 _tokenId, address _tokenMinter, string _tokenMetaData);\n    //event when item is sold\n    event SoldToken (uint256 _tokenId, bytes32 _buyerId, uint256 _cost);\n    //event when donation is chosen (bytes32, amount, charityName, donation id)\n    event DonationChosen (string _charityName, bytes32 _buyerId, uint256 _amountToBeDonated);\n    //event when donation is made by luxarity\n    event DonationMadeToCharity (uint256 _amountDonated, string _charityName, bytes32 _proofHash, string _donationProof, bytes32 _donationMadeHash);\n    //event when token is redeemed\n    event RedeemedToken (uint256 _tokenId, bytes32 _buyerId, address _buyerAddress);\n\n  //modifiers\n    //check if buyer exists\n    modifier onlyBuyer(bytes32 _buyerId) { require(buyers[_buyerId].exists == true); _; }\n\n  //cuase functions\n\n    //mint function\n      //(1) calls internal mint function can only be called by owner\n        //the to address is just going to be the luxarity address\n      //(2) calls setTokenURI function to associated metadata with token\n        //need to determine the standard of JSON that luxarity NFTs follow for the URI\n      //(3) emits MintedToken event\n    function mintItem(string _tokenURI, string _brand, string _size, string _gender, string _style, bytes32 _donorHash) public onlyOwner returns (uint) {\n      //default donor if unknown is SHA256('UNKNOWN')\n      //check if donor already exists, if not add new donor\n      if (!donors[_donorHash].exists) {\n        donors[_donorHash] = Donor(0, true);\n        emit DonationMadeToLuxarity(_donorHash, 0, true);\n      }\n\n      //increment tokenIndex\n      tokenIndex += 1;\n\n      //check if token doesn't exist yet\n      require(_exists(tokenIndex) == true);\n\n      //creating token hash to check uniqueness\n      bytes32 tokenHash = keccak256(abi.encodePacked(_brand, _size, _style, _gender, _tokenURI, msg.sender, msg.sender, _donorHash));\n\n      //create token struct\n      luxTokens[tokenIndex] = LuxToken(tokenHash, _brand, _size, _style, _gender, _tokenURI, msg.sender, msg.sender, _donorHash);\n\n      //mint token\n      _mint(msg.sender, tokenIndex);\n\n      //set metadata\n      _setTokenURI(tokenIndex, _tokenURI);\n\n      //emit event\n      emit MintedToken(tokenIndex, msg.sender, _tokenURI);\n\n      //return\n      return tokenIndex;\n    }\n\n    //sold function\n      //(1) that sets luxarity's funding address as the approved owner of the token id\n      //as an escrow before the owner redeems it off-chain by using their secret off chain PIN\n      //uses approve function to do so\n      //(2) updates buyers and soldtokens mappings\n      //(3) emits SoldToken event\n    function soldItem(bytes32 _buyerID, uint256 _itemCost, bytes32 _redemptionHash, uint256 _tokenId) public onlyOwner returns (bool) {\n\n      //check if buyer already exists\n      if (!buyers[_buyerID].exists) {\n        //adding new buyer to buyers mapping\n        buyers[_buyerID] = Buyer(_itemCost, 0, true, address(0));\n      } else {\n        //update existing buyer\n        buyers[_buyerID].totalContributed += _itemCost;\n      }\n\n      //check if token has been sold by luxarity before?\n      //TBD - the point here is that we want index to be unique, which means selling a token\n      //for the first time from luxarity only once, but we also want a secondary market to exist.\n      //to, the soldTokens mapping only tracks what luxarity has sold, not sales between secondary\n      //market participants afterwards, if a token is sold twice (say we get a refund request),\n      //then it simply replaces its own index values from the last time it was sold and we deduct\n      //its previous cost from the totals\n      if (!soldTokens[_tokenId].sold) {\n        //incrementing total amount of items sold because this is a NEW sale\n        totalItemsSold += 1;\n\n        //create new struct\n        soldTokens[_tokenId] = SaleDetails(_buyerID, _redemptionHash, false, true, _itemCost);\n        //increment total donations\n        totalRaised += _itemCost;\n        //update donor mapping to track end result of donation via sale\n        donors[luxTokens[_tokenId].donorHash].fundsRaised += _itemCost;\n        //emit event that token was sold\n        emit SoldToken(_tokenId, _buyerID, soldTokens[_tokenId].cost);\n        //return\n        return true;\n\n      }\n      //a token can only be sold from luxarity if it is not already sold\n      return false;\n    }\n\n    //chooseDonation function\n      //used when owner of NFT chooses to donate to a chosen cause\n      //(1) updates chosenDonations mapping\n      //(2) emits DonationChosen event\n    function chooseDonation(bytes32 _buyerID, string _charityName, uint256 _chosenDonateAmount) public onlyBuyer(_buyerID) returns (bool) {\n      //if the amount to donate is less than or equal to the amount they have left to allocate\n      uint256 leftover = buyers[_buyerID].totalContributed - buyers[_buyerID].totalDonationsAllocated;\n      if (leftover <= _chosenDonateAmount) {\n        //increment total chosen donations\n        totalChosenDonations += 1;\n        //update chosenDonations mapping and then emit choseDonation event\n        chosenDonations[totalChosenDonations] = ChosenDonation(_charityName, _chosenDonateAmount, _buyerID);\n        //emit event on chosen donation\n        emit DonationChosen(_charityName, _buyerID, _chosenDonateAmount);\n        //return\n        return true;\n      }\n      return false;\n    }\n\n    //make donation function\n      //when luxarity claims to have procesed donation\n      //(1) updates madeDonations mapping\n      //(2) emits MadeToCharity event\n    function makeDonation(bytes32 _proofHash, string _proof, uint256 _madeDonationAmount, string _charityName) public onlyOwner returns (bool) {\n      //donation made proof hash\n      bytes32 donationMadeHash = keccak256(abi.encodePacked(_charityName, _madeDonationAmount, _proofHash, msg.sender, _proof));\n      //check if donation doesn't exist yet\n      require(madeDonations[donationMadeHash].donorAddress == address(0));\n      //increment total made donations\n      totalMadeDonations += 1;\n      //total donated sum amount increased\n      totalDonated += _madeDonationAmount;\n      //add to made donations mapping\n      madeDonations[donationMadeHash] = MadeDonation(_charityName, _madeDonationAmount, _proofHash, msg.sender, _proof);\n      //emit event\n      emit DonationMadeToCharity(_madeDonationAmount, _charityName, _proofHash, _proof, donationMadeHash);\n      //return\n      return true;\n    }\n\n    //redeem token\n      //when buyer wants to redeem their token out of escrow\n      //(1) checks for appropiate buyerHash and redemptionHash against SaleDetails associated with //(2) if true, then calls transferFrom and transfers token ownership from luxarity to buyer Address\n      //(3) updates SaleDetails address for token id indicating new owne\n      //(4) emits RedeemedToken event\n    function redeemItem(bytes32 _buyerID, bytes32 _redemptionHash, address _buyerAddress, uint256 _tokenId) public onlyBuyer(_buyerID) returns (bool) {\n      //make sure address is valid\n      require(_buyerAddress != address(0));\n      //make sure that sold item exists to be redeemed\n      require(soldTokens[_tokenId].buyerHash == _buyerID);\n      //make sure redemption secret is correct\n      require(soldTokens[_tokenId].redemptionHash == _redemptionHash);\n      //update token struct\n      luxTokens[_tokenId].owner = _buyerAddress;\n      //updates salesdetails struct\n      soldTokens[_tokenId].redeemed = true;\n      //conduct transfer from Luxarity to address\n      transferFrom(msg.sender, _buyerAddress, _tokenId);\n      //emit event\n      emit RedeemedToken(_tokenId, _buyerID, _buyerAddress);\n      return true;\n    }\n\n    //safe redeem token\n      //when buyer wants to redeem their token out of escrow\n      //(1) checks for appropiate buyerHash and redemptionHash against SaleDetails associated with //(2) if true, then calls safeTransferFrom and transfers token ownership from luxarity to buyer Address\n      //(3) updates SaleDetails address for token id indicating new owne\n      //(4) emits RedeemedToken event\n    function safeRedeemItem(bytes32 _buyerID, bytes32 _redemptionHash, address _buyerAddress, uint256 _tokenId) public onlyBuyer(_buyerID) returns (bool) {\n      //make sure address is valid\n      require(_buyerAddress != address(0));\n      //make sure that sold item exists to be redeemed\n      require(soldTokens[_tokenId].buyerHash == _buyerID);\n      require(soldTokens[_tokenId].redemptionHash == _redemptionHash);\n      //update token struct\n      luxTokens[_tokenId].owner = _buyerAddress;\n      //conduct transfer from Luxarity to address\n      safeTransferFrom(msg.sender, _buyerAddress, _tokenId);\n      //updates salesdetails struct\n      soldTokens[_tokenId].redeemed = true;\n      //emit event\n      emit RedeemedToken(_tokenId, _buyerID, _buyerAddress);\n      return true;\n    }\n\n  //call functions\n    //get how much a buyer has donated in total\n    function getBuyerAmount(bytes32 _buyerID) public view returns (uint256 total) {\n      if (buyers[_buyerID].exists) {\n        return buyers[_buyerID].totalContributed;\n      }\n      return 0;\n\t\t}\n    //get total amount donated\n    function getTotalRaised() public view returns (uint) {\n      return totalRaised;\n\t\t}\n    //get total specfically allocated\n    function getTotalAllocatedDonations() public view returns (uint) {\n      return totalChosenDonations;\n\t\t}\n    //get total made donations\n    function getTotalMadeDonations() public view returns (uint) {\n      return totalMadeDonations;\n\t\t}\n\n    //get boolean to see if NFT has been redeemed or not\n    function getRedemption(uint _tokenId) public view returns (bool) {\n      return soldTokens[_tokenId].redeemed;\n\t\t}\n    //get boolean to see if NFT has been sold or not\n    function getTokenSold(uint256 _tokenId) public view returns (bool) {\n      return soldTokens[_tokenId].sold;\n    }\n\n    //get token ownerOf\n    function getTokenOwner(uint _tokenId) public view returns (address) {\n      address owner = ownerOf(_tokenId);\n      return owner;\n    }\n\n    //get donor total amount raised through donation\n    function getDonationAmount(bytes32 _donorId) public view returns (uint) {\n      require(donors[_donorId].exists == true);\n      return donors[_donorId].fundsRaised;\n    }\n\n    //transfer ownership of contract\n    function transferContract(address newOwner) public onlyOwner {\n      transferOwnership(newOwner);\n    }\n\n    //fallback\n\t  function() payable public { }\n}\n",
  "sourcePath": "/Applications/MAMP/htdocs/LuxToken/contracts/LuxTokens.sol",
  "compiler": {
    "name": "solc",
    "version": "0.4.24+commit.e67f0147.Emscripten.clang"
  },
  "schemaVersion": "2.0.1",
  "updatedAt": "2018-10-15T17:43:39.004Z"
}